{
	"contracts/3_User.sol": {
		"Users": {
			"abi": [
				{
					"anonymous": false,
					"inputs": [
						{
							"indexed": true,
							"internalType": "address",
							"name": "userID",
							"type": "address"
						},
						{
							"indexed": true,
							"internalType": "uint256",
							"name": "accountCreatedDateTime",
							"type": "uint256"
						}
					],
					"name": "UserRegistered",
					"type": "event"
				},
				{
					"inputs": [
						{
							"internalType": "address",
							"name": "_userId",
							"type": "address"
						}
					],
					"name": "getUserDetails",
					"outputs": [
						{
							"internalType": "string",
							"name": "firstName",
							"type": "string"
						},
						{
							"internalType": "string",
							"name": "lastName",
							"type": "string"
						},
						{
							"internalType": "string",
							"name": "dateOfBirth",
							"type": "string"
						},
						{
							"internalType": "string",
							"name": "aadharNumber",
							"type": "string"
						},
						{
							"internalType": "uint256",
							"name": "accountCreated",
							"type": "uint256"
						}
					],
					"stateMutability": "view",
					"type": "function"
				},
				{
					"inputs": [
						{
							"internalType": "string",
							"name": "_firstName",
							"type": "string"
						},
						{
							"internalType": "string",
							"name": "_lastName",
							"type": "string"
						},
						{
							"internalType": "string",
							"name": "_dateOfBirth",
							"type": "string"
						},
						{
							"internalType": "string",
							"name": "_aadharNumber",
							"type": "string"
						}
					],
					"name": "registerUser",
					"outputs": [],
					"stateMutability": "nonpayable",
					"type": "function"
				},
				{
					"inputs": [
						{
							"internalType": "address",
							"name": "",
							"type": "address"
						}
					],
					"name": "users",
					"outputs": [
						{
							"internalType": "address",
							"name": "userID",
							"type": "address"
						},
						{
							"internalType": "string",
							"name": "firstName",
							"type": "string"
						},
						{
							"internalType": "string",
							"name": "lastName",
							"type": "string"
						},
						{
							"internalType": "string",
							"name": "dateOfBirth",
							"type": "string"
						},
						{
							"internalType": "string",
							"name": "aadharNumber",
							"type": "string"
						},
						{
							"internalType": "uint256",
							"name": "accountCreatedDateTime",
							"type": "uint256"
						}
					],
					"stateMutability": "view",
					"type": "function"
				}
			],
			"devdoc": {
				"kind": "dev",
				"methods": {},
				"version": 1
			},
			"evm": {
				"assembly": "    /* \"contracts/3_User.sol\":57:2039  contract Users {... */\n  mstore(0x40, 0x80)\n  callvalue\n  dup1\n  iszero\n  tag_1\n  jumpi\n  0x00\n  dup1\n  revert\ntag_1:\n  pop\n  dataSize(sub_0)\n  dup1\n  dataOffset(sub_0)\n  0x00\n  codecopy\n  0x00\n  return\nstop\n\nsub_0: assembly {\n        /* \"contracts/3_User.sol\":57:2039  contract Users {... */\n      mstore(0x40, 0x80)\n      callvalue\n      dup1\n      iszero\n      tag_1\n      jumpi\n      0x00\n      dup1\n      revert\n    tag_1:\n      pop\n      jumpi(tag_2, lt(calldatasize, 0x04))\n      shr(0xe0, calldataload(0x00))\n      dup1\n      0x93e54a56\n      eq\n      tag_3\n      jumpi\n      dup1\n      0xa87430ba\n      eq\n      tag_4\n      jumpi\n      dup1\n      0xcc3d967b\n      eq\n      tag_5\n      jumpi\n    tag_2:\n      0x00\n      dup1\n      revert\n        /* \"contracts/3_User.sol\":537:1429  function registerUser(... */\n    tag_3:\n      tag_6\n      0x04\n      dup1\n      calldatasize\n      sub\n      dup2\n      add\n      swap1\n      tag_7\n      swap2\n      swap1\n      tag_8\n      jump\t// in\n    tag_7:\n      tag_9\n      jump\t// in\n    tag_6:\n      stop\n        /* \"contracts/3_User.sol\":329:366  mapping(address => User) public users */\n    tag_4:\n      tag_10\n      0x04\n      dup1\n      calldatasize\n      sub\n      dup2\n      add\n      swap1\n      tag_11\n      swap2\n      swap1\n      tag_12\n      jump\t// in\n    tag_11:\n      tag_13\n      jump\t// in\n    tag_10:\n      mload(0x40)\n      tag_14\n      swap7\n      swap6\n      swap5\n      swap4\n      swap3\n      swap2\n      swap1\n      tag_15\n      jump\t// in\n    tag_14:\n      mload(0x40)\n      dup1\n      swap2\n      sub\n      swap1\n      return\n        /* \"contracts/3_User.sol\":1435:2037  function getUserDetails(address _userId)... */\n    tag_5:\n      tag_16\n      0x04\n      dup1\n      calldatasize\n      sub\n      dup2\n      add\n      swap1\n      tag_17\n      swap2\n      swap1\n      tag_12\n      jump\t// in\n    tag_17:\n      tag_18\n      jump\t// in\n    tag_16:\n      mload(0x40)\n      tag_19\n      swap6\n      swap5\n      swap4\n      swap3\n      swap2\n      swap1\n      tag_20\n      jump\t// in\n    tag_19:\n      mload(0x40)\n      dup1\n      swap2\n      sub\n      swap1\n      return\n        /* \"contracts/3_User.sol\":537:1429  function registerUser(... */\n    tag_9:\n        /* \"contracts/3_User.sol\":774:779  false */\n      0x00\n        /* \"contracts/3_User.sol\":743:779  registeredUsers[msg.sender] == false */\n      iszero\n      iszero\n        /* \"contracts/3_User.sol\":743:758  registeredUsers */\n      0x00\n        /* \"contracts/3_User.sol\":743:770  registeredUsers[msg.sender] */\n      dup1\n        /* \"contracts/3_User.sol\":759:769  msg.sender */\n      caller\n        /* \"contracts/3_User.sol\":743:770  registeredUsers[msg.sender] */\n      0xffffffffffffffffffffffffffffffffffffffff\n      and\n      0xffffffffffffffffffffffffffffffffffffffff\n      and\n      dup2\n      mstore\n      0x20\n      add\n      swap1\n      dup2\n      mstore\n      0x20\n      add\n      0x00\n      keccak256\n      0x00\n      swap1\n      sload\n      swap1\n      0x0100\n      exp\n      swap1\n      div\n      0xff\n      and\n        /* \"contracts/3_User.sol\":743:779  registeredUsers[msg.sender] == false */\n      iszero\n      iszero\n      eq\n        /* \"contracts/3_User.sol\":722:828  require(... */\n      tag_22\n      jumpi\n      mload(0x40)\n      0x08c379a000000000000000000000000000000000000000000000000000000000\n      dup2\n      mstore\n      0x04\n      add\n      tag_23\n      swap1\n      tag_24\n      jump\t// in\n    tag_23:\n      mload(0x40)\n      dup1\n      swap2\n      sub\n      swap1\n      revert\n    tag_22:\n        /* \"contracts/3_User.sol\":891:896  false */\n      0x00\n        /* \"contracts/3_User.sol\":859:896  aadharNumbers[_aadharNumber] == false */\n      iszero\n      iszero\n        /* \"contracts/3_User.sol\":859:872  aadharNumbers */\n      0x02\n        /* \"contracts/3_User.sol\":873:886  _aadharNumber */\n      dup3\n        /* \"contracts/3_User.sol\":859:887  aadharNumbers[_aadharNumber] */\n      mload(0x40)\n      tag_25\n      swap2\n      swap1\n      tag_26\n      jump\t// in\n    tag_25:\n      swap1\n      dup2\n      mstore\n      0x20\n      add\n      mload(0x40)\n      dup1\n      swap2\n      sub\n      swap1\n      keccak256\n      0x00\n      swap1\n      sload\n      swap1\n      0x0100\n      exp\n      swap1\n      div\n      0xff\n      and\n        /* \"contracts/3_User.sol\":859:896  aadharNumbers[_aadharNumber] == false */\n      iszero\n      iszero\n      eq\n        /* \"contracts/3_User.sol\":838:954  require(... */\n      tag_27\n      jumpi\n      mload(0x40)\n      0x08c379a000000000000000000000000000000000000000000000000000000000\n      dup2\n      mstore\n      0x04\n      add\n      tag_28\n      swap1\n      tag_29\n      jump\t// in\n    tag_28:\n      mload(0x40)\n      dup1\n      swap2\n      sub\n      swap1\n      revert\n    tag_27:\n        /* \"contracts/3_User.sol\":965:984  User memory newUser */\n      0x00\n        /* \"contracts/3_User.sol\":987:1236  User({... */\n      mload(0x40)\n      dup1\n      0xc0\n      add\n      0x40\n      mstore\n      dup1\n        /* \"contracts/3_User.sol\":1014:1024  msg.sender */\n      caller\n        /* \"contracts/3_User.sol\":987:1236  User({... */\n      0xffffffffffffffffffffffffffffffffffffffff\n      and\n      dup2\n      mstore\n      0x20\n      add\n        /* \"contracts/3_User.sol\":1049:1059  _firstName */\n      dup7\n        /* \"contracts/3_User.sol\":987:1236  User({... */\n      dup2\n      mstore\n      0x20\n      add\n        /* \"contracts/3_User.sol\":1083:1092  _lastName */\n      dup6\n        /* \"contracts/3_User.sol\":987:1236  User({... */\n      dup2\n      mstore\n      0x20\n      add\n        /* \"contracts/3_User.sol\":1119:1131  _dateOfBirth */\n      dup5\n        /* \"contracts/3_User.sol\":987:1236  User({... */\n      dup2\n      mstore\n      0x20\n      add\n        /* \"contracts/3_User.sol\":1159:1172  _aadharNumber */\n      dup4\n        /* \"contracts/3_User.sol\":987:1236  User({... */\n      dup2\n      mstore\n      0x20\n      add\n        /* \"contracts/3_User.sol\":1210:1225  block.timestamp */\n      timestamp\n        /* \"contracts/3_User.sol\":987:1236  User({... */\n      dup2\n      mstore\n      pop\n        /* \"contracts/3_User.sol\":965:1236  User memory newUser = User({... */\n      swap1\n      pop\n        /* \"contracts/3_User.sol\":1267:1274  newUser */\n      dup1\n        /* \"contracts/3_User.sol\":1247:1252  users */\n      0x01\n        /* \"contracts/3_User.sol\":1247:1264  users[msg.sender] */\n      0x00\n        /* \"contracts/3_User.sol\":1253:1263  msg.sender */\n      caller\n        /* \"contracts/3_User.sol\":1247:1264  users[msg.sender] */\n      0xffffffffffffffffffffffffffffffffffffffff\n      and\n      0xffffffffffffffffffffffffffffffffffffffff\n      and\n      dup2\n      mstore\n      0x20\n      add\n      swap1\n      dup2\n      mstore\n      0x20\n      add\n      0x00\n      keccak256\n        /* \"contracts/3_User.sol\":1247:1274  users[msg.sender] = newUser */\n      0x00\n      dup3\n      add\n      mload\n      dup2\n      0x00\n      add\n      exp(0x0100, 0x00)\n      dup2\n      sload\n      dup2\n      0xffffffffffffffffffffffffffffffffffffffff\n      mul\n      not\n      and\n      swap1\n      dup4\n      0xffffffffffffffffffffffffffffffffffffffff\n      and\n      mul\n      or\n      swap1\n      sstore\n      pop\n      0x20\n      dup3\n      add\n      mload\n      dup2\n      0x01\n      add\n      swap1\n      dup2\n      tag_30\n      swap2\n      swap1\n      tag_31\n      jump\t// in\n    tag_30:\n      pop\n      0x40\n      dup3\n      add\n      mload\n      dup2\n      0x02\n      add\n      swap1\n      dup2\n      tag_32\n      swap2\n      swap1\n      tag_31\n      jump\t// in\n    tag_32:\n      pop\n      0x60\n      dup3\n      add\n      mload\n      dup2\n      0x03\n      add\n      swap1\n      dup2\n      tag_33\n      swap2\n      swap1\n      tag_31\n      jump\t// in\n    tag_33:\n      pop\n      0x80\n      dup3\n      add\n      mload\n      dup2\n      0x04\n      add\n      swap1\n      dup2\n      tag_34\n      swap2\n      swap1\n      tag_31\n      jump\t// in\n    tag_34:\n      pop\n      0xa0\n      dup3\n      add\n      mload\n      dup2\n      0x05\n      add\n      sstore\n      swap1\n      pop\n      pop\n        /* \"contracts/3_User.sol\":1314:1318  true */\n      0x01\n        /* \"contracts/3_User.sol\":1284:1299  registeredUsers */\n      0x00\n        /* \"contracts/3_User.sol\":1284:1311  registeredUsers[msg.sender] */\n      dup1\n        /* \"contracts/3_User.sol\":1300:1310  msg.sender */\n      caller\n        /* \"contracts/3_User.sol\":1284:1311  registeredUsers[msg.sender] */\n      0xffffffffffffffffffffffffffffffffffffffff\n      and\n      0xffffffffffffffffffffffffffffffffffffffff\n      and\n      dup2\n      mstore\n      0x20\n      add\n      swap1\n      dup2\n      mstore\n      0x20\n      add\n      0x00\n      keccak256\n      0x00\n        /* \"contracts/3_User.sol\":1284:1318  registeredUsers[msg.sender] = true */\n      0x0100\n      exp\n      dup2\n      sload\n      dup2\n      0xff\n      mul\n      not\n      and\n      swap1\n      dup4\n      iszero\n      iszero\n      mul\n      or\n      swap1\n      sstore\n      pop\n        /* \"contracts/3_User.sol\":1359:1363  true */\n      0x01\n        /* \"contracts/3_User.sol\":1328:1341  aadharNumbers */\n      0x02\n        /* \"contracts/3_User.sol\":1342:1355  _aadharNumber */\n      dup4\n        /* \"contracts/3_User.sol\":1328:1356  aadharNumbers[_aadharNumber] */\n      mload(0x40)\n      tag_35\n      swap2\n      swap1\n      tag_26\n      jump\t// in\n    tag_35:\n      swap1\n      dup2\n      mstore\n      0x20\n      add\n      mload(0x40)\n      dup1\n      swap2\n      sub\n      swap1\n      keccak256\n      0x00\n        /* \"contracts/3_User.sol\":1328:1363  aadharNumbers[_aadharNumber] = true */\n      0x0100\n      exp\n      dup2\n      sload\n      dup2\n      0xff\n      mul\n      not\n      and\n      swap1\n      dup4\n      iszero\n      iszero\n      mul\n      or\n      swap1\n      sstore\n      pop\n        /* \"contracts/3_User.sol\":1406:1421  block.timestamp */\n      timestamp\n        /* \"contracts/3_User.sol\":1394:1404  msg.sender */\n      caller\n        /* \"contracts/3_User.sol\":1379:1422  UserRegistered(msg.sender, block.timestamp) */\n      0xffffffffffffffffffffffffffffffffffffffff\n      and\n      0xe29d35093005f4d575e1003753426b57a7f64378ba73332eef9c6ccc2b8decd6\n      mload(0x40)\n      mload(0x40)\n      dup1\n      swap2\n      sub\n      swap1\n      log3\n        /* \"contracts/3_User.sol\":712:1429  {... */\n      pop\n        /* \"contracts/3_User.sol\":537:1429  function registerUser(... */\n      pop\n      pop\n      pop\n      pop\n      jump\t// out\n        /* \"contracts/3_User.sol\":329:366  mapping(address => User) public users */\n    tag_13:\n      mstore(0x20, 0x01)\n      dup1\n      0x00\n      mstore\n      keccak256(0x00, 0x40)\n      0x00\n      swap2\n      pop\n      swap1\n      pop\n      dup1\n      0x00\n      add\n      0x00\n      swap1\n      sload\n      swap1\n      0x0100\n      exp\n      swap1\n      div\n      0xffffffffffffffffffffffffffffffffffffffff\n      and\n      swap1\n      dup1\n      0x01\n      add\n      dup1\n      sload\n      tag_36\n      swap1\n      tag_37\n      jump\t// in\n    tag_36:\n      dup1\n      0x1f\n      add\n      0x20\n      dup1\n      swap2\n      div\n      mul\n      0x20\n      add\n      mload(0x40)\n      swap1\n      dup2\n      add\n      0x40\n      mstore\n      dup1\n      swap3\n      swap2\n      swap1\n      dup2\n      dup2\n      mstore\n      0x20\n      add\n      dup3\n      dup1\n      sload\n      tag_38\n      swap1\n      tag_37\n      jump\t// in\n    tag_38:\n      dup1\n      iszero\n      tag_39\n      jumpi\n      dup1\n      0x1f\n      lt\n      tag_40\n      jumpi\n      0x0100\n      dup1\n      dup4\n      sload\n      div\n      mul\n      dup4\n      mstore\n      swap2\n      0x20\n      add\n      swap2\n      jump(tag_39)\n    tag_40:\n      dup3\n      add\n      swap2\n      swap1\n      0x00\n      mstore\n      keccak256(0x00, 0x20)\n      swap1\n    tag_41:\n      dup2\n      sload\n      dup2\n      mstore\n      swap1\n      0x01\n      add\n      swap1\n      0x20\n      add\n      dup1\n      dup4\n      gt\n      tag_41\n      jumpi\n      dup3\n      swap1\n      sub\n      0x1f\n      and\n      dup3\n      add\n      swap2\n    tag_39:\n      pop\n      pop\n      pop\n      pop\n      pop\n      swap1\n      dup1\n      0x02\n      add\n      dup1\n      sload\n      tag_42\n      swap1\n      tag_37\n      jump\t// in\n    tag_42:\n      dup1\n      0x1f\n      add\n      0x20\n      dup1\n      swap2\n      div\n      mul\n      0x20\n      add\n      mload(0x40)\n      swap1\n      dup2\n      add\n      0x40\n      mstore\n      dup1\n      swap3\n      swap2\n      swap1\n      dup2\n      dup2\n      mstore\n      0x20\n      add\n      dup3\n      dup1\n      sload\n      tag_43\n      swap1\n      tag_37\n      jump\t// in\n    tag_43:\n      dup1\n      iszero\n      tag_44\n      jumpi\n      dup1\n      0x1f\n      lt\n      tag_45\n      jumpi\n      0x0100\n      dup1\n      dup4\n      sload\n      div\n      mul\n      dup4\n      mstore\n      swap2\n      0x20\n      add\n      swap2\n      jump(tag_44)\n    tag_45:\n      dup3\n      add\n      swap2\n      swap1\n      0x00\n      mstore\n      keccak256(0x00, 0x20)\n      swap1\n    tag_46:\n      dup2\n      sload\n      dup2\n      mstore\n      swap1\n      0x01\n      add\n      swap1\n      0x20\n      add\n      dup1\n      dup4\n      gt\n      tag_46\n      jumpi\n      dup3\n      swap1\n      sub\n      0x1f\n      and\n      dup3\n      add\n      swap2\n    tag_44:\n      pop\n      pop\n      pop\n      pop\n      pop\n      swap1\n      dup1\n      0x03\n      add\n      dup1\n      sload\n      tag_47\n      swap1\n      tag_37\n      jump\t// in\n    tag_47:\n      dup1\n      0x1f\n      add\n      0x20\n      dup1\n      swap2\n      div\n      mul\n      0x20\n      add\n      mload(0x40)\n      swap1\n      dup2\n      add\n      0x40\n      mstore\n      dup1\n      swap3\n      swap2\n      swap1\n      dup2\n      dup2\n      mstore\n      0x20\n      add\n      dup3\n      dup1\n      sload\n      tag_48\n      swap1\n      tag_37\n      jump\t// in\n    tag_48:\n      dup1\n      iszero\n      tag_49\n      jumpi\n      dup1\n      0x1f\n      lt\n      tag_50\n      jumpi\n      0x0100\n      dup1\n      dup4\n      sload\n      div\n      mul\n      dup4\n      mstore\n      swap2\n      0x20\n      add\n      swap2\n      jump(tag_49)\n    tag_50:\n      dup3\n      add\n      swap2\n      swap1\n      0x00\n      mstore\n      keccak256(0x00, 0x20)\n      swap1\n    tag_51:\n      dup2\n      sload\n      dup2\n      mstore\n      swap1\n      0x01\n      add\n      swap1\n      0x20\n      add\n      dup1\n      dup4\n      gt\n      tag_51\n      jumpi\n      dup3\n      swap1\n      sub\n      0x1f\n      and\n      dup3\n      add\n      swap2\n    tag_49:\n      pop\n      pop\n      pop\n      pop\n      pop\n      swap1\n      dup1\n      0x04\n      add\n      dup1\n      sload\n      tag_52\n      swap1\n      tag_37\n      jump\t// in\n    tag_52:\n      dup1\n      0x1f\n      add\n      0x20\n      dup1\n      swap2\n      div\n      mul\n      0x20\n      add\n      mload(0x40)\n      swap1\n      dup2\n      add\n      0x40\n      mstore\n      dup1\n      swap3\n      swap2\n      swap1\n      dup2\n      dup2\n      mstore\n      0x20\n      add\n      dup3\n      dup1\n      sload\n      tag_53\n      swap1\n      tag_37\n      jump\t// in\n    tag_53:\n      dup1\n      iszero\n      tag_54\n      jumpi\n      dup1\n      0x1f\n      lt\n      tag_55\n      jumpi\n      0x0100\n      dup1\n      dup4\n      sload\n      div\n      mul\n      dup4\n      mstore\n      swap2\n      0x20\n      add\n      swap2\n      jump(tag_54)\n    tag_55:\n      dup3\n      add\n      swap2\n      swap1\n      0x00\n      mstore\n      keccak256(0x00, 0x20)\n      swap1\n    tag_56:\n      dup2\n      sload\n      dup2\n      mstore\n      swap1\n      0x01\n      add\n      swap1\n      0x20\n      add\n      dup1\n      dup4\n      gt\n      tag_56\n      jumpi\n      dup3\n      swap1\n      sub\n      0x1f\n      and\n      dup3\n      add\n      swap2\n    tag_54:\n      pop\n      pop\n      pop\n      pop\n      pop\n      swap1\n      dup1\n      0x05\n      add\n      sload\n      swap1\n      pop\n      dup7\n      jump\t// out\n        /* \"contracts/3_User.sol\":1435:2037  function getUserDetails(address _userId)... */\n    tag_18:\n        /* \"contracts/3_User.sol\":1534:1557  string memory firstName */\n      0x60\n        /* \"contracts/3_User.sol\":1571:1593  string memory lastName */\n      dup1\n        /* \"contracts/3_User.sol\":1607:1632  string memory dateOfBirth */\n      0x60\n        /* \"contracts/3_User.sol\":1646:1672  string memory aadharNumber */\n      dup1\n        /* \"contracts/3_User.sol\":1686:1708  uint256 accountCreated */\n      0x00\n        /* \"contracts/3_User.sol\":1774:1775  0 */\n      dup1\n        /* \"contracts/3_User.sol\":1741:1776  users[_userId].userID != address(0) */\n      0xffffffffffffffffffffffffffffffffffffffff\n      and\n        /* \"contracts/3_User.sol\":1741:1746  users */\n      0x01\n        /* \"contracts/3_User.sol\":1741:1755  users[_userId] */\n      0x00\n        /* \"contracts/3_User.sol\":1747:1754  _userId */\n      dup9\n        /* \"contracts/3_User.sol\":1741:1755  users[_userId] */\n      0xffffffffffffffffffffffffffffffffffffffff\n      and\n      0xffffffffffffffffffffffffffffffffffffffff\n      and\n      dup2\n      mstore\n      0x20\n      add\n      swap1\n      dup2\n      mstore\n      0x20\n      add\n      0x00\n      keccak256\n        /* \"contracts/3_User.sol\":1741:1762  users[_userId].userID */\n      0x00\n      add\n      0x00\n      swap1\n      sload\n      swap1\n      0x0100\n      exp\n      swap1\n      div\n      0xffffffffffffffffffffffffffffffffffffffff\n      and\n        /* \"contracts/3_User.sol\":1741:1776  users[_userId].userID != address(0) */\n      0xffffffffffffffffffffffffffffffffffffffff\n      and\n      sub\n        /* \"contracts/3_User.sol\":1733:1800  require(users[_userId].userID != address(0), \"User does not exist\") */\n      tag_58\n      jumpi\n      mload(0x40)\n      0x08c379a000000000000000000000000000000000000000000000000000000000\n      dup2\n      mstore\n      0x04\n      add\n      tag_59\n      swap1\n      tag_60\n      jump\t// in\n    tag_59:\n      mload(0x40)\n      dup1\n      swap2\n      sub\n      swap1\n      revert\n    tag_58:\n        /* \"contracts/3_User.sol\":1811:1828  User storage user */\n      0x00\n        /* \"contracts/3_User.sol\":1831:1836  users */\n      0x01\n        /* \"contracts/3_User.sol\":1831:1845  users[_userId] */\n      0x00\n        /* \"contracts/3_User.sol\":1837:1844  _userId */\n      dup9\n        /* \"contracts/3_User.sol\":1831:1845  users[_userId] */\n      0xffffffffffffffffffffffffffffffffffffffff\n      and\n      0xffffffffffffffffffffffffffffffffffffffff\n      and\n      dup2\n      mstore\n      0x20\n      add\n      swap1\n      dup2\n      mstore\n      0x20\n      add\n      0x00\n      keccak256\n        /* \"contracts/3_User.sol\":1811:1845  User storage user = users[_userId] */\n      swap1\n      pop\n        /* \"contracts/3_User.sol\":1877:1881  user */\n      dup1\n        /* \"contracts/3_User.sol\":1877:1891  user.firstName */\n      0x01\n      add\n        /* \"contracts/3_User.sol\":1905:1909  user */\n      dup2\n        /* \"contracts/3_User.sol\":1905:1918  user.lastName */\n      0x02\n      add\n        /* \"contracts/3_User.sol\":1932:1936  user */\n      dup3\n        /* \"contracts/3_User.sol\":1932:1948  user.dateOfBirth */\n      0x03\n      add\n        /* \"contracts/3_User.sol\":1962:1966  user */\n      dup4\n        /* \"contracts/3_User.sol\":1962:1979  user.aadharNumber */\n      0x04\n      add\n        /* \"contracts/3_User.sol\":1993:1997  user */\n      dup5\n        /* \"contracts/3_User.sol\":1993:2020  user.accountCreatedDateTime */\n      0x05\n      add\n      sload\n        /* \"contracts/3_User.sol\":1856:2030  return (... */\n      dup5\n      dup1\n      sload\n      tag_61\n      swap1\n      tag_37\n      jump\t// in\n    tag_61:\n      dup1\n      0x1f\n      add\n      0x20\n      dup1\n      swap2\n      div\n      mul\n      0x20\n      add\n      mload(0x40)\n      swap1\n      dup2\n      add\n      0x40\n      mstore\n      dup1\n      swap3\n      swap2\n      swap1\n      dup2\n      dup2\n      mstore\n      0x20\n      add\n      dup3\n      dup1\n      sload\n      tag_62\n      swap1\n      tag_37\n      jump\t// in\n    tag_62:\n      dup1\n      iszero\n      tag_63\n      jumpi\n      dup1\n      0x1f\n      lt\n      tag_64\n      jumpi\n      0x0100\n      dup1\n      dup4\n      sload\n      div\n      mul\n      dup4\n      mstore\n      swap2\n      0x20\n      add\n      swap2\n      jump(tag_63)\n    tag_64:\n      dup3\n      add\n      swap2\n      swap1\n      0x00\n      mstore\n      keccak256(0x00, 0x20)\n      swap1\n    tag_65:\n      dup2\n      sload\n      dup2\n      mstore\n      swap1\n      0x01\n      add\n      swap1\n      0x20\n      add\n      dup1\n      dup4\n      gt\n      tag_65\n      jumpi\n      dup3\n      swap1\n      sub\n      0x1f\n      and\n      dup3\n      add\n      swap2\n    tag_63:\n      pop\n      pop\n      pop\n      pop\n      pop\n      swap5\n      pop\n      dup4\n      dup1\n      sload\n      tag_66\n      swap1\n      tag_37\n      jump\t// in\n    tag_66:\n      dup1\n      0x1f\n      add\n      0x20\n      dup1\n      swap2\n      div\n      mul\n      0x20\n      add\n      mload(0x40)\n      swap1\n      dup2\n      add\n      0x40\n      mstore\n      dup1\n      swap3\n      swap2\n      swap1\n      dup2\n      dup2\n      mstore\n      0x20\n      add\n      dup3\n      dup1\n      sload\n      tag_67\n      swap1\n      tag_37\n      jump\t// in\n    tag_67:\n      dup1\n      iszero\n      tag_68\n      jumpi\n      dup1\n      0x1f\n      lt\n      tag_69\n      jumpi\n      0x0100\n      dup1\n      dup4\n      sload\n      div\n      mul\n      dup4\n      mstore\n      swap2\n      0x20\n      add\n      swap2\n      jump(tag_68)\n    tag_69:\n      dup3\n      add\n      swap2\n      swap1\n      0x00\n      mstore\n      keccak256(0x00, 0x20)\n      swap1\n    tag_70:\n      dup2\n      sload\n      dup2\n      mstore\n      swap1\n      0x01\n      add\n      swap1\n      0x20\n      add\n      dup1\n      dup4\n      gt\n      tag_70\n      jumpi\n      dup3\n      swap1\n      sub\n      0x1f\n      and\n      dup3\n      add\n      swap2\n    tag_68:\n      pop\n      pop\n      pop\n      pop\n      pop\n      swap4\n      pop\n      dup3\n      dup1\n      sload\n      tag_71\n      swap1\n      tag_37\n      jump\t// in\n    tag_71:\n      dup1\n      0x1f\n      add\n      0x20\n      dup1\n      swap2\n      div\n      mul\n      0x20\n      add\n      mload(0x40)\n      swap1\n      dup2\n      add\n      0x40\n      mstore\n      dup1\n      swap3\n      swap2\n      swap1\n      dup2\n      dup2\n      mstore\n      0x20\n      add\n      dup3\n      dup1\n      sload\n      tag_72\n      swap1\n      tag_37\n      jump\t// in\n    tag_72:\n      dup1\n      iszero\n      tag_73\n      jumpi\n      dup1\n      0x1f\n      lt\n      tag_74\n      jumpi\n      0x0100\n      dup1\n      dup4\n      sload\n      div\n      mul\n      dup4\n      mstore\n      swap2\n      0x20\n      add\n      swap2\n      jump(tag_73)\n    tag_74:\n      dup3\n      add\n      swap2\n      swap1\n      0x00\n      mstore\n      keccak256(0x00, 0x20)\n      swap1\n    tag_75:\n      dup2\n      sload\n      dup2\n      mstore\n      swap1\n      0x01\n      add\n      swap1\n      0x20\n      add\n      dup1\n      dup4\n      gt\n      tag_75\n      jumpi\n      dup3\n      swap1\n      sub\n      0x1f\n      and\n      dup3\n      add\n      swap2\n    tag_73:\n      pop\n      pop\n      pop\n      pop\n      pop\n      swap3\n      pop\n      dup2\n      dup1\n      sload\n      tag_76\n      swap1\n      tag_37\n      jump\t// in\n    tag_76:\n      dup1\n      0x1f\n      add\n      0x20\n      dup1\n      swap2\n      div\n      mul\n      0x20\n      add\n      mload(0x40)\n      swap1\n      dup2\n      add\n      0x40\n      mstore\n      dup1\n      swap3\n      swap2\n      swap1\n      dup2\n      dup2\n      mstore\n      0x20\n      add\n      dup3\n      dup1\n      sload\n      tag_77\n      swap1\n      tag_37\n      jump\t// in\n    tag_77:\n      dup1\n      iszero\n      tag_78\n      jumpi\n      dup1\n      0x1f\n      lt\n      tag_79\n      jumpi\n      0x0100\n      dup1\n      dup4\n      sload\n      div\n      mul\n      dup4\n      mstore\n      swap2\n      0x20\n      add\n      swap2\n      jump(tag_78)\n    tag_79:\n      dup3\n      add\n      swap2\n      swap1\n      0x00\n      mstore\n      keccak256(0x00, 0x20)\n      swap1\n    tag_80:\n      dup2\n      sload\n      dup2\n      mstore\n      swap1\n      0x01\n      add\n      swap1\n      0x20\n      add\n      dup1\n      dup4\n      gt\n      tag_80\n      jumpi\n      dup3\n      swap1\n      sub\n      0x1f\n      and\n      dup3\n      add\n      swap2\n    tag_78:\n      pop\n      pop\n      pop\n      pop\n      pop\n      swap2\n      pop\n      swap6\n      pop\n      swap6\n      pop\n      swap6\n      pop\n      swap6\n      pop\n      swap6\n      pop\n      pop\n        /* \"contracts/3_User.sol\":1435:2037  function getUserDetails(address _userId)... */\n      swap2\n      swap4\n      swap6\n      swap1\n      swap3\n      swap5\n      pop\n      jump\t// out\n        /* \"#utility.yul\":7:82   */\n    tag_81:\n        /* \"#utility.yul\":40:46   */\n      0x00\n        /* \"#utility.yul\":73:75   */\n      0x40\n        /* \"#utility.yul\":67:76   */\n      mload\n        /* \"#utility.yul\":57:76   */\n      swap1\n      pop\n        /* \"#utility.yul\":7:82   */\n      swap1\n      jump\t// out\n        /* \"#utility.yul\":88:205   */\n    tag_82:\n        /* \"#utility.yul\":197:198   */\n      0x00\n        /* \"#utility.yul\":194:195   */\n      dup1\n        /* \"#utility.yul\":187:199   */\n      revert\n        /* \"#utility.yul\":211:328   */\n    tag_83:\n        /* \"#utility.yul\":320:321   */\n      0x00\n        /* \"#utility.yul\":317:318   */\n      dup1\n        /* \"#utility.yul\":310:322   */\n      revert\n        /* \"#utility.yul\":334:451   */\n    tag_84:\n        /* \"#utility.yul\":443:444   */\n      0x00\n        /* \"#utility.yul\":440:441   */\n      dup1\n        /* \"#utility.yul\":433:445   */\n      revert\n        /* \"#utility.yul\":457:574   */\n    tag_85:\n        /* \"#utility.yul\":566:567   */\n      0x00\n        /* \"#utility.yul\":563:564   */\n      dup1\n        /* \"#utility.yul\":556:568   */\n      revert\n        /* \"#utility.yul\":580:682   */\n    tag_86:\n        /* \"#utility.yul\":621:627   */\n      0x00\n        /* \"#utility.yul\":672:674   */\n      0x1f\n        /* \"#utility.yul\":668:675   */\n      not\n        /* \"#utility.yul\":663:665   */\n      0x1f\n        /* \"#utility.yul\":656:661   */\n      dup4\n        /* \"#utility.yul\":652:666   */\n      add\n        /* \"#utility.yul\":648:676   */\n      and\n        /* \"#utility.yul\":638:676   */\n      swap1\n      pop\n        /* \"#utility.yul\":580:682   */\n      swap2\n      swap1\n      pop\n      jump\t// out\n        /* \"#utility.yul\":688:868   */\n    tag_87:\n        /* \"#utility.yul\":736:813   */\n      0x4e487b7100000000000000000000000000000000000000000000000000000000\n        /* \"#utility.yul\":733:734   */\n      0x00\n        /* \"#utility.yul\":726:814   */\n      mstore\n        /* \"#utility.yul\":833:837   */\n      0x41\n        /* \"#utility.yul\":830:831   */\n      0x04\n        /* \"#utility.yul\":823:838   */\n      mstore\n        /* \"#utility.yul\":857:861   */\n      0x24\n        /* \"#utility.yul\":854:855   */\n      0x00\n        /* \"#utility.yul\":847:862   */\n      revert\n        /* \"#utility.yul\":874:1155   */\n    tag_88:\n        /* \"#utility.yul\":957:984   */\n      tag_138\n        /* \"#utility.yul\":979:983   */\n      dup3\n        /* \"#utility.yul\":957:984   */\n      tag_86\n      jump\t// in\n    tag_138:\n        /* \"#utility.yul\":949:955   */\n      dup2\n        /* \"#utility.yul\":945:985   */\n      add\n        /* \"#utility.yul\":1087:1093   */\n      dup2\n        /* \"#utility.yul\":1075:1085   */\n      dup2\n        /* \"#utility.yul\":1072:1094   */\n      lt\n        /* \"#utility.yul\":1051:1069   */\n      0xffffffffffffffff\n        /* \"#utility.yul\":1039:1049   */\n      dup3\n        /* \"#utility.yul\":1036:1070   */\n      gt\n        /* \"#utility.yul\":1033:1095   */\n      or\n        /* \"#utility.yul\":1030:1118   */\n      iszero\n      tag_139\n      jumpi\n        /* \"#utility.yul\":1098:1116   */\n      tag_140\n      tag_87\n      jump\t// in\n    tag_140:\n        /* \"#utility.yul\":1030:1118   */\n    tag_139:\n        /* \"#utility.yul\":1138:1148   */\n      dup1\n        /* \"#utility.yul\":1134:1136   */\n      0x40\n        /* \"#utility.yul\":1127:1149   */\n      mstore\n        /* \"#utility.yul\":917:1155   */\n      pop\n        /* \"#utility.yul\":874:1155   */\n      pop\n      pop\n      jump\t// out\n        /* \"#utility.yul\":1161:1290   */\n    tag_89:\n        /* \"#utility.yul\":1195:1201   */\n      0x00\n        /* \"#utility.yul\":1222:1242   */\n      tag_142\n      tag_81\n      jump\t// in\n    tag_142:\n        /* \"#utility.yul\":1212:1242   */\n      swap1\n      pop\n        /* \"#utility.yul\":1251:1284   */\n      tag_143\n        /* \"#utility.yul\":1279:1283   */\n      dup3\n        /* \"#utility.yul\":1271:1277   */\n      dup3\n        /* \"#utility.yul\":1251:1284   */\n      tag_88\n      jump\t// in\n    tag_143:\n        /* \"#utility.yul\":1161:1290   */\n      swap2\n      swap1\n      pop\n      jump\t// out\n        /* \"#utility.yul\":1296:1604   */\n    tag_90:\n        /* \"#utility.yul\":1358:1362   */\n      0x00\n        /* \"#utility.yul\":1448:1466   */\n      0xffffffffffffffff\n        /* \"#utility.yul\":1440:1446   */\n      dup3\n        /* \"#utility.yul\":1437:1467   */\n      gt\n        /* \"#utility.yul\":1434:1490   */\n      iszero\n      tag_145\n      jumpi\n        /* \"#utility.yul\":1470:1488   */\n      tag_146\n      tag_87\n      jump\t// in\n    tag_146:\n        /* \"#utility.yul\":1434:1490   */\n    tag_145:\n        /* \"#utility.yul\":1508:1537   */\n      tag_147\n        /* \"#utility.yul\":1530:1536   */\n      dup3\n        /* \"#utility.yul\":1508:1537   */\n      tag_86\n      jump\t// in\n    tag_147:\n        /* \"#utility.yul\":1500:1537   */\n      swap1\n      pop\n        /* \"#utility.yul\":1592:1596   */\n      0x20\n        /* \"#utility.yul\":1586:1590   */\n      dup2\n        /* \"#utility.yul\":1582:1597   */\n      add\n        /* \"#utility.yul\":1574:1597   */\n      swap1\n      pop\n        /* \"#utility.yul\":1296:1604   */\n      swap2\n      swap1\n      pop\n      jump\t// out\n        /* \"#utility.yul\":1610:1756   */\n    tag_91:\n        /* \"#utility.yul\":1707:1713   */\n      dup3\n        /* \"#utility.yul\":1702:1705   */\n      dup2\n        /* \"#utility.yul\":1697:1700   */\n      dup4\n        /* \"#utility.yul\":1684:1714   */\n      calldatacopy\n        /* \"#utility.yul\":1748:1749   */\n      0x00\n        /* \"#utility.yul\":1739:1745   */\n      dup4\n        /* \"#utility.yul\":1734:1737   */\n      dup4\n        /* \"#utility.yul\":1730:1746   */\n      add\n        /* \"#utility.yul\":1723:1750   */\n      mstore\n        /* \"#utility.yul\":1610:1756   */\n      pop\n      pop\n      pop\n      jump\t// out\n        /* \"#utility.yul\":1762:2187   */\n    tag_92:\n        /* \"#utility.yul\":1840:1845   */\n      0x00\n        /* \"#utility.yul\":1865:1931   */\n      tag_150\n        /* \"#utility.yul\":1881:1930   */\n      tag_151\n        /* \"#utility.yul\":1923:1929   */\n      dup5\n        /* \"#utility.yul\":1881:1930   */\n      tag_90\n      jump\t// in\n    tag_151:\n        /* \"#utility.yul\":1865:1931   */\n      tag_89\n      jump\t// in\n    tag_150:\n        /* \"#utility.yul\":1856:1931   */\n      swap1\n      pop\n        /* \"#utility.yul\":1954:1960   */\n      dup3\n        /* \"#utility.yul\":1947:1952   */\n      dup2\n        /* \"#utility.yul\":1940:1961   */\n      mstore\n        /* \"#utility.yul\":1992:1996   */\n      0x20\n        /* \"#utility.yul\":1985:1990   */\n      dup2\n        /* \"#utility.yul\":1981:1997   */\n      add\n        /* \"#utility.yul\":2030:2033   */\n      dup5\n        /* \"#utility.yul\":2021:2027   */\n      dup5\n        /* \"#utility.yul\":2016:2019   */\n      dup5\n        /* \"#utility.yul\":2012:2028   */\n      add\n        /* \"#utility.yul\":2009:2034   */\n      gt\n        /* \"#utility.yul\":2006:2118   */\n      iszero\n      tag_152\n      jumpi\n        /* \"#utility.yul\":2037:2116   */\n      tag_153\n      tag_85\n      jump\t// in\n    tag_153:\n        /* \"#utility.yul\":2006:2118   */\n    tag_152:\n        /* \"#utility.yul\":2127:2181   */\n      tag_154\n        /* \"#utility.yul\":2174:2180   */\n      dup5\n        /* \"#utility.yul\":2169:2172   */\n      dup3\n        /* \"#utility.yul\":2164:2167   */\n      dup6\n        /* \"#utility.yul\":2127:2181   */\n      tag_91\n      jump\t// in\n    tag_154:\n        /* \"#utility.yul\":1846:2187   */\n      pop\n        /* \"#utility.yul\":1762:2187   */\n      swap4\n      swap3\n      pop\n      pop\n      pop\n      jump\t// out\n        /* \"#utility.yul\":2207:2547   */\n    tag_93:\n        /* \"#utility.yul\":2263:2268   */\n      0x00\n        /* \"#utility.yul\":2312:2315   */\n      dup3\n        /* \"#utility.yul\":2305:2309   */\n      0x1f\n        /* \"#utility.yul\":2297:2303   */\n      dup4\n        /* \"#utility.yul\":2293:2310   */\n      add\n        /* \"#utility.yul\":2289:2316   */\n      slt\n        /* \"#utility.yul\":2279:2401   */\n      tag_156\n      jumpi\n        /* \"#utility.yul\":2320:2399   */\n      tag_157\n      tag_84\n      jump\t// in\n    tag_157:\n        /* \"#utility.yul\":2279:2401   */\n    tag_156:\n        /* \"#utility.yul\":2437:2443   */\n      dup2\n        /* \"#utility.yul\":2424:2444   */\n      calldataload\n        /* \"#utility.yul\":2462:2541   */\n      tag_158\n        /* \"#utility.yul\":2537:2540   */\n      dup5\n        /* \"#utility.yul\":2529:2535   */\n      dup3\n        /* \"#utility.yul\":2522:2526   */\n      0x20\n        /* \"#utility.yul\":2514:2520   */\n      dup7\n        /* \"#utility.yul\":2510:2527   */\n      add\n        /* \"#utility.yul\":2462:2541   */\n      tag_92\n      jump\t// in\n    tag_158:\n        /* \"#utility.yul\":2453:2541   */\n      swap2\n      pop\n        /* \"#utility.yul\":2269:2547   */\n      pop\n        /* \"#utility.yul\":2207:2547   */\n      swap3\n      swap2\n      pop\n      pop\n      jump\t// out\n        /* \"#utility.yul\":2553:4038   */\n    tag_8:\n        /* \"#utility.yul\":2679:2685   */\n      0x00\n        /* \"#utility.yul\":2687:2693   */\n      dup1\n        /* \"#utility.yul\":2695:2701   */\n      0x00\n        /* \"#utility.yul\":2703:2709   */\n      dup1\n        /* \"#utility.yul\":2752:2755   */\n      0x80\n        /* \"#utility.yul\":2740:2749   */\n      dup6\n        /* \"#utility.yul\":2731:2738   */\n      dup8\n        /* \"#utility.yul\":2727:2750   */\n      sub\n        /* \"#utility.yul\":2723:2756   */\n      slt\n        /* \"#utility.yul\":2720:2840   */\n      iszero\n      tag_160\n      jumpi\n        /* \"#utility.yul\":2759:2838   */\n      tag_161\n      tag_82\n      jump\t// in\n    tag_161:\n        /* \"#utility.yul\":2720:2840   */\n    tag_160:\n        /* \"#utility.yul\":2907:2908   */\n      0x00\n        /* \"#utility.yul\":2896:2905   */\n      dup6\n        /* \"#utility.yul\":2892:2909   */\n      add\n        /* \"#utility.yul\":2879:2910   */\n      calldataload\n        /* \"#utility.yul\":2937:2955   */\n      0xffffffffffffffff\n        /* \"#utility.yul\":2929:2935   */\n      dup2\n        /* \"#utility.yul\":2926:2956   */\n      gt\n        /* \"#utility.yul\":2923:3040   */\n      iszero\n      tag_162\n      jumpi\n        /* \"#utility.yul\":2959:3038   */\n      tag_163\n      tag_83\n      jump\t// in\n    tag_163:\n        /* \"#utility.yul\":2923:3040   */\n    tag_162:\n        /* \"#utility.yul\":3064:3127   */\n      tag_164\n        /* \"#utility.yul\":3119:3126   */\n      dup8\n        /* \"#utility.yul\":3110:3116   */\n      dup3\n        /* \"#utility.yul\":3099:3108   */\n      dup9\n        /* \"#utility.yul\":3095:3117   */\n      add\n        /* \"#utility.yul\":3064:3127   */\n      tag_93\n      jump\t// in\n    tag_164:\n        /* \"#utility.yul\":3054:3127   */\n      swap5\n      pop\n        /* \"#utility.yul\":2850:3137   */\n      pop\n        /* \"#utility.yul\":3204:3206   */\n      0x20\n        /* \"#utility.yul\":3193:3202   */\n      dup6\n        /* \"#utility.yul\":3189:3207   */\n      add\n        /* \"#utility.yul\":3176:3208   */\n      calldataload\n        /* \"#utility.yul\":3235:3253   */\n      0xffffffffffffffff\n        /* \"#utility.yul\":3227:3233   */\n      dup2\n        /* \"#utility.yul\":3224:3254   */\n      gt\n        /* \"#utility.yul\":3221:3338   */\n      iszero\n      tag_165\n      jumpi\n        /* \"#utility.yul\":3257:3336   */\n      tag_166\n      tag_83\n      jump\t// in\n    tag_166:\n        /* \"#utility.yul\":3221:3338   */\n    tag_165:\n        /* \"#utility.yul\":3362:3425   */\n      tag_167\n        /* \"#utility.yul\":3417:3424   */\n      dup8\n        /* \"#utility.yul\":3408:3414   */\n      dup3\n        /* \"#utility.yul\":3397:3406   */\n      dup9\n        /* \"#utility.yul\":3393:3415   */\n      add\n        /* \"#utility.yul\":3362:3425   */\n      tag_93\n      jump\t// in\n    tag_167:\n        /* \"#utility.yul\":3352:3425   */\n      swap4\n      pop\n        /* \"#utility.yul\":3147:3435   */\n      pop\n        /* \"#utility.yul\":3502:3504   */\n      0x40\n        /* \"#utility.yul\":3491:3500   */\n      dup6\n        /* \"#utility.yul\":3487:3505   */\n      add\n        /* \"#utility.yul\":3474:3506   */\n      calldataload\n        /* \"#utility.yul\":3533:3551   */\n      0xffffffffffffffff\n        /* \"#utility.yul\":3525:3531   */\n      dup2\n        /* \"#utility.yul\":3522:3552   */\n      gt\n        /* \"#utility.yul\":3519:3636   */\n      iszero\n      tag_168\n      jumpi\n        /* \"#utility.yul\":3555:3634   */\n      tag_169\n      tag_83\n      jump\t// in\n    tag_169:\n        /* \"#utility.yul\":3519:3636   */\n    tag_168:\n        /* \"#utility.yul\":3660:3723   */\n      tag_170\n        /* \"#utility.yul\":3715:3722   */\n      dup8\n        /* \"#utility.yul\":3706:3712   */\n      dup3\n        /* \"#utility.yul\":3695:3704   */\n      dup9\n        /* \"#utility.yul\":3691:3713   */\n      add\n        /* \"#utility.yul\":3660:3723   */\n      tag_93\n      jump\t// in\n    tag_170:\n        /* \"#utility.yul\":3650:3723   */\n      swap3\n      pop\n        /* \"#utility.yul\":3445:3733   */\n      pop\n        /* \"#utility.yul\":3800:3802   */\n      0x60\n        /* \"#utility.yul\":3789:3798   */\n      dup6\n        /* \"#utility.yul\":3785:3803   */\n      add\n        /* \"#utility.yul\":3772:3804   */\n      calldataload\n        /* \"#utility.yul\":3831:3849   */\n      0xffffffffffffffff\n        /* \"#utility.yul\":3823:3829   */\n      dup2\n        /* \"#utility.yul\":3820:3850   */\n      gt\n        /* \"#utility.yul\":3817:3934   */\n      iszero\n      tag_171\n      jumpi\n        /* \"#utility.yul\":3853:3932   */\n      tag_172\n      tag_83\n      jump\t// in\n    tag_172:\n        /* \"#utility.yul\":3817:3934   */\n    tag_171:\n        /* \"#utility.yul\":3958:4021   */\n      tag_173\n        /* \"#utility.yul\":4013:4020   */\n      dup8\n        /* \"#utility.yul\":4004:4010   */\n      dup3\n        /* \"#utility.yul\":3993:4002   */\n      dup9\n        /* \"#utility.yul\":3989:4011   */\n      add\n        /* \"#utility.yul\":3958:4021   */\n      tag_93\n      jump\t// in\n    tag_173:\n        /* \"#utility.yul\":3948:4021   */\n      swap2\n      pop\n        /* \"#utility.yul\":3743:4031   */\n      pop\n        /* \"#utility.yul\":2553:4038   */\n      swap3\n      swap6\n      swap2\n      swap5\n      pop\n      swap3\n      pop\n      jump\t// out\n        /* \"#utility.yul\":4044:4170   */\n    tag_94:\n        /* \"#utility.yul\":4081:4088   */\n      0x00\n        /* \"#utility.yul\":4121:4163   */\n      0xffffffffffffffffffffffffffffffffffffffff\n        /* \"#utility.yul\":4114:4119   */\n      dup3\n        /* \"#utility.yul\":4110:4164   */\n      and\n        /* \"#utility.yul\":4099:4164   */\n      swap1\n      pop\n        /* \"#utility.yul\":4044:4170   */\n      swap2\n      swap1\n      pop\n      jump\t// out\n        /* \"#utility.yul\":4176:4272   */\n    tag_95:\n        /* \"#utility.yul\":4213:4220   */\n      0x00\n        /* \"#utility.yul\":4242:4266   */\n      tag_176\n        /* \"#utility.yul\":4260:4265   */\n      dup3\n        /* \"#utility.yul\":4242:4266   */\n      tag_94\n      jump\t// in\n    tag_176:\n        /* \"#utility.yul\":4231:4266   */\n      swap1\n      pop\n        /* \"#utility.yul\":4176:4272   */\n      swap2\n      swap1\n      pop\n      jump\t// out\n        /* \"#utility.yul\":4278:4400   */\n    tag_96:\n        /* \"#utility.yul\":4351:4375   */\n      tag_178\n        /* \"#utility.yul\":4369:4374   */\n      dup2\n        /* \"#utility.yul\":4351:4375   */\n      tag_95\n      jump\t// in\n    tag_178:\n        /* \"#utility.yul\":4344:4349   */\n      dup2\n        /* \"#utility.yul\":4341:4376   */\n      eq\n        /* \"#utility.yul\":4331:4394   */\n      tag_179\n      jumpi\n        /* \"#utility.yul\":4390:4391   */\n      0x00\n        /* \"#utility.yul\":4387:4388   */\n      dup1\n        /* \"#utility.yul\":4380:4392   */\n      revert\n        /* \"#utility.yul\":4331:4394   */\n    tag_179:\n        /* \"#utility.yul\":4278:4400   */\n      pop\n      jump\t// out\n        /* \"#utility.yul\":4406:4545   */\n    tag_97:\n        /* \"#utility.yul\":4452:4457   */\n      0x00\n        /* \"#utility.yul\":4490:4496   */\n      dup2\n        /* \"#utility.yul\":4477:4497   */\n      calldataload\n        /* \"#utility.yul\":4468:4497   */\n      swap1\n      pop\n        /* \"#utility.yul\":4506:4539   */\n      tag_181\n        /* \"#utility.yul\":4533:4538   */\n      dup2\n        /* \"#utility.yul\":4506:4539   */\n      tag_96\n      jump\t// in\n    tag_181:\n        /* \"#utility.yul\":4406:4545   */\n      swap3\n      swap2\n      pop\n      pop\n      jump\t// out\n        /* \"#utility.yul\":4551:4880   */\n    tag_12:\n        /* \"#utility.yul\":4610:4616   */\n      0x00\n        /* \"#utility.yul\":4659:4661   */\n      0x20\n        /* \"#utility.yul\":4647:4656   */\n      dup3\n        /* \"#utility.yul\":4638:4645   */\n      dup5\n        /* \"#utility.yul\":4634:4657   */\n      sub\n        /* \"#utility.yul\":4630:4662   */\n      slt\n        /* \"#utility.yul\":4627:4746   */\n      iszero\n      tag_183\n      jumpi\n        /* \"#utility.yul\":4665:4744   */\n      tag_184\n      tag_82\n      jump\t// in\n    tag_184:\n        /* \"#utility.yul\":4627:4746   */\n    tag_183:\n        /* \"#utility.yul\":4785:4786   */\n      0x00\n        /* \"#utility.yul\":4810:4863   */\n      tag_185\n        /* \"#utility.yul\":4855:4862   */\n      dup5\n        /* \"#utility.yul\":4846:4852   */\n      dup3\n        /* \"#utility.yul\":4835:4844   */\n      dup6\n        /* \"#utility.yul\":4831:4853   */\n      add\n        /* \"#utility.yul\":4810:4863   */\n      tag_97\n      jump\t// in\n    tag_185:\n        /* \"#utility.yul\":4800:4863   */\n      swap2\n      pop\n        /* \"#utility.yul\":4756:4873   */\n      pop\n        /* \"#utility.yul\":4551:4880   */\n      swap3\n      swap2\n      pop\n      pop\n      jump\t// out\n        /* \"#utility.yul\":4886:5004   */\n    tag_98:\n        /* \"#utility.yul\":4973:4997   */\n      tag_187\n        /* \"#utility.yul\":4991:4996   */\n      dup2\n        /* \"#utility.yul\":4973:4997   */\n      tag_95\n      jump\t// in\n    tag_187:\n        /* \"#utility.yul\":4968:4971   */\n      dup3\n        /* \"#utility.yul\":4961:4998   */\n      mstore\n        /* \"#utility.yul\":4886:5004   */\n      pop\n      pop\n      jump\t// out\n        /* \"#utility.yul\":5010:5109   */\n    tag_99:\n        /* \"#utility.yul\":5062:5068   */\n      0x00\n        /* \"#utility.yul\":5096:5101   */\n      dup2\n        /* \"#utility.yul\":5090:5102   */\n      mload\n        /* \"#utility.yul\":5080:5102   */\n      swap1\n      pop\n        /* \"#utility.yul\":5010:5109   */\n      swap2\n      swap1\n      pop\n      jump\t// out\n        /* \"#utility.yul\":5115:5284   */\n    tag_100:\n        /* \"#utility.yul\":5199:5210   */\n      0x00\n        /* \"#utility.yul\":5233:5239   */\n      dup3\n        /* \"#utility.yul\":5228:5231   */\n      dup3\n        /* \"#utility.yul\":5221:5240   */\n      mstore\n        /* \"#utility.yul\":5273:5277   */\n      0x20\n        /* \"#utility.yul\":5268:5271   */\n      dup3\n        /* \"#utility.yul\":5264:5278   */\n      add\n        /* \"#utility.yul\":5249:5278   */\n      swap1\n      pop\n        /* \"#utility.yul\":5115:5284   */\n      swap3\n      swap2\n      pop\n      pop\n      jump\t// out\n        /* \"#utility.yul\":5290:5536   */\n    tag_101:\n        /* \"#utility.yul\":5371:5372   */\n      0x00\n        /* \"#utility.yul\":5381:5494   */\n    tag_191:\n        /* \"#utility.yul\":5395:5401   */\n      dup4\n        /* \"#utility.yul\":5392:5393   */\n      dup2\n        /* \"#utility.yul\":5389:5402   */\n      lt\n        /* \"#utility.yul\":5381:5494   */\n      iszero\n      tag_193\n      jumpi\n        /* \"#utility.yul\":5480:5481   */\n      dup1\n        /* \"#utility.yul\":5475:5478   */\n      dup3\n        /* \"#utility.yul\":5471:5482   */\n      add\n        /* \"#utility.yul\":5465:5483   */\n      mload\n        /* \"#utility.yul\":5461:5462   */\n      dup2\n        /* \"#utility.yul\":5456:5459   */\n      dup5\n        /* \"#utility.yul\":5452:5463   */\n      add\n        /* \"#utility.yul\":5445:5484   */\n      mstore\n        /* \"#utility.yul\":5417:5419   */\n      0x20\n        /* \"#utility.yul\":5414:5415   */\n      dup2\n        /* \"#utility.yul\":5410:5420   */\n      add\n        /* \"#utility.yul\":5405:5420   */\n      swap1\n      pop\n        /* \"#utility.yul\":5381:5494   */\n      jump(tag_191)\n    tag_193:\n        /* \"#utility.yul\":5528:5529   */\n      0x00\n        /* \"#utility.yul\":5519:5525   */\n      dup5\n        /* \"#utility.yul\":5514:5517   */\n      dup5\n        /* \"#utility.yul\":5510:5526   */\n      add\n        /* \"#utility.yul\":5503:5530   */\n      mstore\n        /* \"#utility.yul\":5352:5536   */\n      pop\n        /* \"#utility.yul\":5290:5536   */\n      pop\n      pop\n      pop\n      jump\t// out\n        /* \"#utility.yul\":5542:5919   */\n    tag_102:\n        /* \"#utility.yul\":5630:5633   */\n      0x00\n        /* \"#utility.yul\":5658:5697   */\n      tag_195\n        /* \"#utility.yul\":5691:5696   */\n      dup3\n        /* \"#utility.yul\":5658:5697   */\n      tag_99\n      jump\t// in\n    tag_195:\n        /* \"#utility.yul\":5713:5784   */\n      tag_196\n        /* \"#utility.yul\":5777:5783   */\n      dup2\n        /* \"#utility.yul\":5772:5775   */\n      dup6\n        /* \"#utility.yul\":5713:5784   */\n      tag_100\n      jump\t// in\n    tag_196:\n        /* \"#utility.yul\":5706:5784   */\n      swap4\n      pop\n        /* \"#utility.yul\":5793:5858   */\n      tag_197\n        /* \"#utility.yul\":5851:5857   */\n      dup2\n        /* \"#utility.yul\":5846:5849   */\n      dup6\n        /* \"#utility.yul\":5839:5843   */\n      0x20\n        /* \"#utility.yul\":5832:5837   */\n      dup7\n        /* \"#utility.yul\":5828:5844   */\n      add\n        /* \"#utility.yul\":5793:5858   */\n      tag_101\n      jump\t// in\n    tag_197:\n        /* \"#utility.yul\":5883:5912   */\n      tag_198\n        /* \"#utility.yul\":5905:5911   */\n      dup2\n        /* \"#utility.yul\":5883:5912   */\n      tag_86\n      jump\t// in\n    tag_198:\n        /* \"#utility.yul\":5878:5881   */\n      dup5\n        /* \"#utility.yul\":5874:5913   */\n      add\n        /* \"#utility.yul\":5867:5913   */\n      swap2\n      pop\n        /* \"#utility.yul\":5634:5919   */\n      pop\n        /* \"#utility.yul\":5542:5919   */\n      swap3\n      swap2\n      pop\n      pop\n      jump\t// out\n        /* \"#utility.yul\":5925:6002   */\n    tag_103:\n        /* \"#utility.yul\":5962:5969   */\n      0x00\n        /* \"#utility.yul\":5991:5996   */\n      dup2\n        /* \"#utility.yul\":5980:5996   */\n      swap1\n      pop\n        /* \"#utility.yul\":5925:6002   */\n      swap2\n      swap1\n      pop\n      jump\t// out\n        /* \"#utility.yul\":6008:6126   */\n    tag_104:\n        /* \"#utility.yul\":6095:6119   */\n      tag_201\n        /* \"#utility.yul\":6113:6118   */\n      dup2\n        /* \"#utility.yul\":6095:6119   */\n      tag_103\n      jump\t// in\n    tag_201:\n        /* \"#utility.yul\":6090:6093   */\n      dup3\n        /* \"#utility.yul\":6083:6120   */\n      mstore\n        /* \"#utility.yul\":6008:6126   */\n      pop\n      pop\n      jump\t// out\n        /* \"#utility.yul\":6132:7271   */\n    tag_15:\n        /* \"#utility.yul\":6445:6449   */\n      0x00\n        /* \"#utility.yul\":6483:6486   */\n      0xc0\n        /* \"#utility.yul\":6472:6481   */\n      dup3\n        /* \"#utility.yul\":6468:6487   */\n      add\n        /* \"#utility.yul\":6460:6487   */\n      swap1\n      pop\n        /* \"#utility.yul\":6497:6568   */\n      tag_203\n        /* \"#utility.yul\":6565:6566   */\n      0x00\n        /* \"#utility.yul\":6554:6563   */\n      dup4\n        /* \"#utility.yul\":6550:6567   */\n      add\n        /* \"#utility.yul\":6541:6547   */\n      dup10\n        /* \"#utility.yul\":6497:6568   */\n      tag_98\n      jump\t// in\n    tag_203:\n        /* \"#utility.yul\":6615:6624   */\n      dup2\n        /* \"#utility.yul\":6609:6613   */\n      dup2\n        /* \"#utility.yul\":6605:6625   */\n      sub\n        /* \"#utility.yul\":6600:6602   */\n      0x20\n        /* \"#utility.yul\":6589:6598   */\n      dup4\n        /* \"#utility.yul\":6585:6603   */\n      add\n        /* \"#utility.yul\":6578:6626   */\n      mstore\n        /* \"#utility.yul\":6643:6721   */\n      tag_204\n        /* \"#utility.yul\":6716:6720   */\n      dup2\n        /* \"#utility.yul\":6707:6713   */\n      dup9\n        /* \"#utility.yul\":6643:6721   */\n      tag_102\n      jump\t// in\n    tag_204:\n        /* \"#utility.yul\":6635:6721   */\n      swap1\n      pop\n        /* \"#utility.yul\":6768:6777   */\n      dup2\n        /* \"#utility.yul\":6762:6766   */\n      dup2\n        /* \"#utility.yul\":6758:6778   */\n      sub\n        /* \"#utility.yul\":6753:6755   */\n      0x40\n        /* \"#utility.yul\":6742:6751   */\n      dup4\n        /* \"#utility.yul\":6738:6756   */\n      add\n        /* \"#utility.yul\":6731:6779   */\n      mstore\n        /* \"#utility.yul\":6796:6874   */\n      tag_205\n        /* \"#utility.yul\":6869:6873   */\n      dup2\n        /* \"#utility.yul\":6860:6866   */\n      dup8\n        /* \"#utility.yul\":6796:6874   */\n      tag_102\n      jump\t// in\n    tag_205:\n        /* \"#utility.yul\":6788:6874   */\n      swap1\n      pop\n        /* \"#utility.yul\":6921:6930   */\n      dup2\n        /* \"#utility.yul\":6915:6919   */\n      dup2\n        /* \"#utility.yul\":6911:6931   */\n      sub\n        /* \"#utility.yul\":6906:6908   */\n      0x60\n        /* \"#utility.yul\":6895:6904   */\n      dup4\n        /* \"#utility.yul\":6891:6909   */\n      add\n        /* \"#utility.yul\":6884:6932   */\n      mstore\n        /* \"#utility.yul\":6949:7027   */\n      tag_206\n        /* \"#utility.yul\":7022:7026   */\n      dup2\n        /* \"#utility.yul\":7013:7019   */\n      dup7\n        /* \"#utility.yul\":6949:7027   */\n      tag_102\n      jump\t// in\n    tag_206:\n        /* \"#utility.yul\":6941:7027   */\n      swap1\n      pop\n        /* \"#utility.yul\":7075:7084   */\n      dup2\n        /* \"#utility.yul\":7069:7073   */\n      dup2\n        /* \"#utility.yul\":7065:7085   */\n      sub\n        /* \"#utility.yul\":7059:7062   */\n      0x80\n        /* \"#utility.yul\":7048:7057   */\n      dup4\n        /* \"#utility.yul\":7044:7063   */\n      add\n        /* \"#utility.yul\":7037:7086   */\n      mstore\n        /* \"#utility.yul\":7103:7181   */\n      tag_207\n        /* \"#utility.yul\":7176:7180   */\n      dup2\n        /* \"#utility.yul\":7167:7173   */\n      dup6\n        /* \"#utility.yul\":7103:7181   */\n      tag_102\n      jump\t// in\n    tag_207:\n        /* \"#utility.yul\":7095:7181   */\n      swap1\n      pop\n        /* \"#utility.yul\":7191:7264   */\n      tag_208\n        /* \"#utility.yul\":7259:7262   */\n      0xa0\n        /* \"#utility.yul\":7248:7257   */\n      dup4\n        /* \"#utility.yul\":7244:7263   */\n      add\n        /* \"#utility.yul\":7235:7241   */\n      dup5\n        /* \"#utility.yul\":7191:7264   */\n      tag_104\n      jump\t// in\n    tag_208:\n        /* \"#utility.yul\":6132:7271   */\n      swap8\n      swap7\n      pop\n      pop\n      pop\n      pop\n      pop\n      pop\n      pop\n      jump\t// out\n        /* \"#utility.yul\":7277:8305   */\n    tag_20:\n        /* \"#utility.yul\":7562:7566   */\n      0x00\n        /* \"#utility.yul\":7600:7603   */\n      0xa0\n        /* \"#utility.yul\":7589:7598   */\n      dup3\n        /* \"#utility.yul\":7585:7604   */\n      add\n        /* \"#utility.yul\":7577:7604   */\n      swap1\n      pop\n        /* \"#utility.yul\":7650:7659   */\n      dup2\n        /* \"#utility.yul\":7644:7648   */\n      dup2\n        /* \"#utility.yul\":7640:7660   */\n      sub\n        /* \"#utility.yul\":7636:7637   */\n      0x00\n        /* \"#utility.yul\":7625:7634   */\n      dup4\n        /* \"#utility.yul\":7621:7638   */\n      add\n        /* \"#utility.yul\":7614:7661   */\n      mstore\n        /* \"#utility.yul\":7678:7756   */\n      tag_210\n        /* \"#utility.yul\":7751:7755   */\n      dup2\n        /* \"#utility.yul\":7742:7748   */\n      dup9\n        /* \"#utility.yul\":7678:7756   */\n      tag_102\n      jump\t// in\n    tag_210:\n        /* \"#utility.yul\":7670:7756   */\n      swap1\n      pop\n        /* \"#utility.yul\":7803:7812   */\n      dup2\n        /* \"#utility.yul\":7797:7801   */\n      dup2\n        /* \"#utility.yul\":7793:7813   */\n      sub\n        /* \"#utility.yul\":7788:7790   */\n      0x20\n        /* \"#utility.yul\":7777:7786   */\n      dup4\n        /* \"#utility.yul\":7773:7791   */\n      add\n        /* \"#utility.yul\":7766:7814   */\n      mstore\n        /* \"#utility.yul\":7831:7909   */\n      tag_211\n        /* \"#utility.yul\":7904:7908   */\n      dup2\n        /* \"#utility.yul\":7895:7901   */\n      dup8\n        /* \"#utility.yul\":7831:7909   */\n      tag_102\n      jump\t// in\n    tag_211:\n        /* \"#utility.yul\":7823:7909   */\n      swap1\n      pop\n        /* \"#utility.yul\":7956:7965   */\n      dup2\n        /* \"#utility.yul\":7950:7954   */\n      dup2\n        /* \"#utility.yul\":7946:7966   */\n      sub\n        /* \"#utility.yul\":7941:7943   */\n      0x40\n        /* \"#utility.yul\":7930:7939   */\n      dup4\n        /* \"#utility.yul\":7926:7944   */\n      add\n        /* \"#utility.yul\":7919:7967   */\n      mstore\n        /* \"#utility.yul\":7984:8062   */\n      tag_212\n        /* \"#utility.yul\":8057:8061   */\n      dup2\n        /* \"#utility.yul\":8048:8054   */\n      dup7\n        /* \"#utility.yul\":7984:8062   */\n      tag_102\n      jump\t// in\n    tag_212:\n        /* \"#utility.yul\":7976:8062   */\n      swap1\n      pop\n        /* \"#utility.yul\":8109:8118   */\n      dup2\n        /* \"#utility.yul\":8103:8107   */\n      dup2\n        /* \"#utility.yul\":8099:8119   */\n      sub\n        /* \"#utility.yul\":8094:8096   */\n      0x60\n        /* \"#utility.yul\":8083:8092   */\n      dup4\n        /* \"#utility.yul\":8079:8097   */\n      add\n        /* \"#utility.yul\":8072:8120   */\n      mstore\n        /* \"#utility.yul\":8137:8215   */\n      tag_213\n        /* \"#utility.yul\":8210:8214   */\n      dup2\n        /* \"#utility.yul\":8201:8207   */\n      dup6\n        /* \"#utility.yul\":8137:8215   */\n      tag_102\n      jump\t// in\n    tag_213:\n        /* \"#utility.yul\":8129:8215   */\n      swap1\n      pop\n        /* \"#utility.yul\":8225:8298   */\n      tag_214\n        /* \"#utility.yul\":8293:8296   */\n      0x80\n        /* \"#utility.yul\":8282:8291   */\n      dup4\n        /* \"#utility.yul\":8278:8297   */\n      add\n        /* \"#utility.yul\":8269:8275   */\n      dup5\n        /* \"#utility.yul\":8225:8298   */\n      tag_104\n      jump\t// in\n    tag_214:\n        /* \"#utility.yul\":7277:8305   */\n      swap7\n      swap6\n      pop\n      pop\n      pop\n      pop\n      pop\n      pop\n      jump\t// out\n        /* \"#utility.yul\":8311:8484   */\n    tag_105:\n        /* \"#utility.yul\":8451:8476   */\n      0x5573657220616c72656164792072656769737465726564000000000000000000\n        /* \"#utility.yul\":8447:8448   */\n      0x00\n        /* \"#utility.yul\":8439:8445   */\n      dup3\n        /* \"#utility.yul\":8435:8449   */\n      add\n        /* \"#utility.yul\":8428:8477   */\n      mstore\n        /* \"#utility.yul\":8311:8484   */\n      pop\n      jump\t// out\n        /* \"#utility.yul\":8490:8856   */\n    tag_106:\n        /* \"#utility.yul\":8632:8635   */\n      0x00\n        /* \"#utility.yul\":8653:8720   */\n      tag_217\n        /* \"#utility.yul\":8717:8719   */\n      0x17\n        /* \"#utility.yul\":8712:8715   */\n      dup4\n        /* \"#utility.yul\":8653:8720   */\n      tag_100\n      jump\t// in\n    tag_217:\n        /* \"#utility.yul\":8646:8720   */\n      swap2\n      pop\n        /* \"#utility.yul\":8729:8822   */\n      tag_218\n        /* \"#utility.yul\":8818:8821   */\n      dup3\n        /* \"#utility.yul\":8729:8822   */\n      tag_105\n      jump\t// in\n    tag_218:\n        /* \"#utility.yul\":8847:8849   */\n      0x20\n        /* \"#utility.yul\":8842:8845   */\n      dup3\n        /* \"#utility.yul\":8838:8850   */\n      add\n        /* \"#utility.yul\":8831:8850   */\n      swap1\n      pop\n        /* \"#utility.yul\":8490:8856   */\n      swap2\n      swap1\n      pop\n      jump\t// out\n        /* \"#utility.yul\":8862:9281   */\n    tag_24:\n        /* \"#utility.yul\":9028:9032   */\n      0x00\n        /* \"#utility.yul\":9066:9068   */\n      0x20\n        /* \"#utility.yul\":9055:9064   */\n      dup3\n        /* \"#utility.yul\":9051:9069   */\n      add\n        /* \"#utility.yul\":9043:9069   */\n      swap1\n      pop\n        /* \"#utility.yul\":9115:9124   */\n      dup2\n        /* \"#utility.yul\":9109:9113   */\n      dup2\n        /* \"#utility.yul\":9105:9125   */\n      sub\n        /* \"#utility.yul\":9101:9102   */\n      0x00\n        /* \"#utility.yul\":9090:9099   */\n      dup4\n        /* \"#utility.yul\":9086:9103   */\n      add\n        /* \"#utility.yul\":9079:9126   */\n      mstore\n        /* \"#utility.yul\":9143:9274   */\n      tag_220\n        /* \"#utility.yul\":9269:9273   */\n      dup2\n        /* \"#utility.yul\":9143:9274   */\n      tag_106\n      jump\t// in\n    tag_220:\n        /* \"#utility.yul\":9135:9274   */\n      swap1\n      pop\n        /* \"#utility.yul\":8862:9281   */\n      swap2\n      swap1\n      pop\n      jump\t// out\n        /* \"#utility.yul\":9287:9435   */\n    tag_107:\n        /* \"#utility.yul\":9389:9400   */\n      0x00\n        /* \"#utility.yul\":9426:9429   */\n      dup2\n        /* \"#utility.yul\":9411:9429   */\n      swap1\n      pop\n        /* \"#utility.yul\":9287:9435   */\n      swap3\n      swap2\n      pop\n      pop\n      jump\t// out\n        /* \"#utility.yul\":9441:9831   */\n    tag_108:\n        /* \"#utility.yul\":9547:9550   */\n      0x00\n        /* \"#utility.yul\":9575:9614   */\n      tag_223\n        /* \"#utility.yul\":9608:9613   */\n      dup3\n        /* \"#utility.yul\":9575:9614   */\n      tag_99\n      jump\t// in\n    tag_223:\n        /* \"#utility.yul\":9630:9719   */\n      tag_224\n        /* \"#utility.yul\":9712:9718   */\n      dup2\n        /* \"#utility.yul\":9707:9710   */\n      dup6\n        /* \"#utility.yul\":9630:9719   */\n      tag_107\n      jump\t// in\n    tag_224:\n        /* \"#utility.yul\":9623:9719   */\n      swap4\n      pop\n        /* \"#utility.yul\":9728:9793   */\n      tag_225\n        /* \"#utility.yul\":9786:9792   */\n      dup2\n        /* \"#utility.yul\":9781:9784   */\n      dup6\n        /* \"#utility.yul\":9774:9778   */\n      0x20\n        /* \"#utility.yul\":9767:9772   */\n      dup7\n        /* \"#utility.yul\":9763:9779   */\n      add\n        /* \"#utility.yul\":9728:9793   */\n      tag_101\n      jump\t// in\n    tag_225:\n        /* \"#utility.yul\":9818:9824   */\n      dup1\n        /* \"#utility.yul\":9813:9816   */\n      dup5\n        /* \"#utility.yul\":9809:9825   */\n      add\n        /* \"#utility.yul\":9802:9825   */\n      swap2\n      pop\n        /* \"#utility.yul\":9551:9831   */\n      pop\n        /* \"#utility.yul\":9441:9831   */\n      swap3\n      swap2\n      pop\n      pop\n      jump\t// out\n        /* \"#utility.yul\":9837:10112   */\n    tag_26:\n        /* \"#utility.yul\":9969:9972   */\n      0x00\n        /* \"#utility.yul\":9991:10086   */\n      tag_227\n        /* \"#utility.yul\":10082:10085   */\n      dup3\n        /* \"#utility.yul\":10073:10079   */\n      dup5\n        /* \"#utility.yul\":9991:10086   */\n      tag_108\n      jump\t// in\n    tag_227:\n        /* \"#utility.yul\":9984:10086   */\n      swap2\n      pop\n        /* \"#utility.yul\":10103:10106   */\n      dup2\n        /* \"#utility.yul\":10096:10106   */\n      swap1\n      pop\n        /* \"#utility.yul\":9837:10112   */\n      swap3\n      swap2\n      pop\n      pop\n      jump\t// out\n        /* \"#utility.yul\":10118:10300   */\n    tag_109:\n        /* \"#utility.yul\":10258:10292   */\n      0x416164686172206e756d62657220616c72656164792072656769737465726564\n        /* \"#utility.yul\":10254:10255   */\n      0x00\n        /* \"#utility.yul\":10246:10252   */\n      dup3\n        /* \"#utility.yul\":10242:10256   */\n      add\n        /* \"#utility.yul\":10235:10293   */\n      mstore\n        /* \"#utility.yul\":10118:10300   */\n      pop\n      jump\t// out\n        /* \"#utility.yul\":10306:10672   */\n    tag_110:\n        /* \"#utility.yul\":10448:10451   */\n      0x00\n        /* \"#utility.yul\":10469:10536   */\n      tag_230\n        /* \"#utility.yul\":10533:10535   */\n      0x20\n        /* \"#utility.yul\":10528:10531   */\n      dup4\n        /* \"#utility.yul\":10469:10536   */\n      tag_100\n      jump\t// in\n    tag_230:\n        /* \"#utility.yul\":10462:10536   */\n      swap2\n      pop\n        /* \"#utility.yul\":10545:10638   */\n      tag_231\n        /* \"#utility.yul\":10634:10637   */\n      dup3\n        /* \"#utility.yul\":10545:10638   */\n      tag_109\n      jump\t// in\n    tag_231:\n        /* \"#utility.yul\":10663:10665   */\n      0x20\n        /* \"#utility.yul\":10658:10661   */\n      dup3\n        /* \"#utility.yul\":10654:10666   */\n      add\n        /* \"#utility.yul\":10647:10666   */\n      swap1\n      pop\n        /* \"#utility.yul\":10306:10672   */\n      swap2\n      swap1\n      pop\n      jump\t// out\n        /* \"#utility.yul\":10678:11097   */\n    tag_29:\n        /* \"#utility.yul\":10844:10848   */\n      0x00\n        /* \"#utility.yul\":10882:10884   */\n      0x20\n        /* \"#utility.yul\":10871:10880   */\n      dup3\n        /* \"#utility.yul\":10867:10885   */\n      add\n        /* \"#utility.yul\":10859:10885   */\n      swap1\n      pop\n        /* \"#utility.yul\":10931:10940   */\n      dup2\n        /* \"#utility.yul\":10925:10929   */\n      dup2\n        /* \"#utility.yul\":10921:10941   */\n      sub\n        /* \"#utility.yul\":10917:10918   */\n      0x00\n        /* \"#utility.yul\":10906:10915   */\n      dup4\n        /* \"#utility.yul\":10902:10919   */\n      add\n        /* \"#utility.yul\":10895:10942   */\n      mstore\n        /* \"#utility.yul\":10959:11090   */\n      tag_233\n        /* \"#utility.yul\":11085:11089   */\n      dup2\n        /* \"#utility.yul\":10959:11090   */\n      tag_110\n      jump\t// in\n    tag_233:\n        /* \"#utility.yul\":10951:11090   */\n      swap1\n      pop\n        /* \"#utility.yul\":10678:11097   */\n      swap2\n      swap1\n      pop\n      jump\t// out\n        /* \"#utility.yul\":11103:11283   */\n    tag_111:\n        /* \"#utility.yul\":11151:11228   */\n      0x4e487b7100000000000000000000000000000000000000000000000000000000\n        /* \"#utility.yul\":11148:11149   */\n      0x00\n        /* \"#utility.yul\":11141:11229   */\n      mstore\n        /* \"#utility.yul\":11248:11252   */\n      0x22\n        /* \"#utility.yul\":11245:11246   */\n      0x04\n        /* \"#utility.yul\":11238:11253   */\n      mstore\n        /* \"#utility.yul\":11272:11276   */\n      0x24\n        /* \"#utility.yul\":11269:11270   */\n      0x00\n        /* \"#utility.yul\":11262:11277   */\n      revert\n        /* \"#utility.yul\":11289:11609   */\n    tag_37:\n        /* \"#utility.yul\":11333:11339   */\n      0x00\n        /* \"#utility.yul\":11370:11371   */\n      0x02\n        /* \"#utility.yul\":11364:11368   */\n      dup3\n        /* \"#utility.yul\":11360:11372   */\n      div\n        /* \"#utility.yul\":11350:11372   */\n      swap1\n      pop\n        /* \"#utility.yul\":11417:11418   */\n      0x01\n        /* \"#utility.yul\":11411:11415   */\n      dup3\n        /* \"#utility.yul\":11407:11419   */\n      and\n        /* \"#utility.yul\":11438:11456   */\n      dup1\n        /* \"#utility.yul\":11428:11509   */\n      tag_236\n      jumpi\n        /* \"#utility.yul\":11494:11498   */\n      0x7f\n        /* \"#utility.yul\":11486:11492   */\n      dup3\n        /* \"#utility.yul\":11482:11499   */\n      and\n        /* \"#utility.yul\":11472:11499   */\n      swap2\n      pop\n        /* \"#utility.yul\":11428:11509   */\n    tag_236:\n        /* \"#utility.yul\":11556:11558   */\n      0x20\n        /* \"#utility.yul\":11548:11554   */\n      dup3\n        /* \"#utility.yul\":11545:11559   */\n      lt\n        /* \"#utility.yul\":11525:11543   */\n      dup2\n        /* \"#utility.yul\":11522:11560   */\n      sub\n        /* \"#utility.yul\":11519:11603   */\n      tag_237\n      jumpi\n        /* \"#utility.yul\":11575:11593   */\n      tag_238\n      tag_111\n      jump\t// in\n    tag_238:\n        /* \"#utility.yul\":11519:11603   */\n    tag_237:\n        /* \"#utility.yul\":11340:11609   */\n      pop\n        /* \"#utility.yul\":11289:11609   */\n      swap2\n      swap1\n      pop\n      jump\t// out\n        /* \"#utility.yul\":11615:11756   */\n    tag_112:\n        /* \"#utility.yul\":11664:11668   */\n      0x00\n        /* \"#utility.yul\":11687:11690   */\n      dup2\n        /* \"#utility.yul\":11679:11690   */\n      swap1\n      pop\n        /* \"#utility.yul\":11710:11713   */\n      dup2\n        /* \"#utility.yul\":11707:11708   */\n      0x00\n        /* \"#utility.yul\":11700:11714   */\n      mstore\n        /* \"#utility.yul\":11744:11748   */\n      0x20\n        /* \"#utility.yul\":11741:11742   */\n      0x00\n        /* \"#utility.yul\":11731:11749   */\n      keccak256\n        /* \"#utility.yul\":11723:11749   */\n      swap1\n      pop\n        /* \"#utility.yul\":11615:11756   */\n      swap2\n      swap1\n      pop\n      jump\t// out\n        /* \"#utility.yul\":11762:11855   */\n    tag_113:\n        /* \"#utility.yul\":11799:11805   */\n      0x00\n        /* \"#utility.yul\":11846:11848   */\n      0x20\n        /* \"#utility.yul\":11841:11843   */\n      0x1f\n        /* \"#utility.yul\":11834:11839   */\n      dup4\n        /* \"#utility.yul\":11830:11844   */\n      add\n        /* \"#utility.yul\":11826:11849   */\n      div\n        /* \"#utility.yul\":11816:11849   */\n      swap1\n      pop\n        /* \"#utility.yul\":11762:11855   */\n      swap2\n      swap1\n      pop\n      jump\t// out\n        /* \"#utility.yul\":11861:11968   */\n    tag_114:\n        /* \"#utility.yul\":11905:11913   */\n      0x00\n        /* \"#utility.yul\":11955:11960   */\n      dup3\n        /* \"#utility.yul\":11949:11953   */\n      dup3\n        /* \"#utility.yul\":11945:11961   */\n      shl\n        /* \"#utility.yul\":11924:11961   */\n      swap1\n      pop\n        /* \"#utility.yul\":11861:11968   */\n      swap3\n      swap2\n      pop\n      pop\n      jump\t// out\n        /* \"#utility.yul\":11974:12367   */\n    tag_115:\n        /* \"#utility.yul\":12043:12049   */\n      0x00\n        /* \"#utility.yul\":12093:12094   */\n      0x08\n        /* \"#utility.yul\":12081:12091   */\n      dup4\n        /* \"#utility.yul\":12077:12095   */\n      mul\n        /* \"#utility.yul\":12116:12213   */\n      tag_243\n        /* \"#utility.yul\":12146:12212   */\n      0xffffffffffffffffffffffffffffffffffffffffffffffffffffffffffffffff\n        /* \"#utility.yul\":12135:12144   */\n      dup3\n        /* \"#utility.yul\":12116:12213   */\n      tag_114\n      jump\t// in\n    tag_243:\n        /* \"#utility.yul\":12234:12273   */\n      tag_244\n        /* \"#utility.yul\":12264:12272   */\n      dup7\n        /* \"#utility.yul\":12253:12262   */\n      dup4\n        /* \"#utility.yul\":12234:12273   */\n      tag_114\n      jump\t// in\n    tag_244:\n        /* \"#utility.yul\":12222:12273   */\n      swap6\n      pop\n        /* \"#utility.yul\":12306:12310   */\n      dup1\n        /* \"#utility.yul\":12302:12311   */\n      not\n        /* \"#utility.yul\":12295:12300   */\n      dup5\n        /* \"#utility.yul\":12291:12312   */\n      and\n        /* \"#utility.yul\":12282:12312   */\n      swap4\n      pop\n        /* \"#utility.yul\":12355:12359   */\n      dup1\n        /* \"#utility.yul\":12345:12353   */\n      dup7\n        /* \"#utility.yul\":12341:12360   */\n      and\n        /* \"#utility.yul\":12334:12339   */\n      dup5\n        /* \"#utility.yul\":12331:12361   */\n      or\n        /* \"#utility.yul\":12321:12361   */\n      swap3\n      pop\n        /* \"#utility.yul\":12050:12367   */\n      pop\n      pop\n        /* \"#utility.yul\":11974:12367   */\n      swap4\n      swap3\n      pop\n      pop\n      pop\n      jump\t// out\n        /* \"#utility.yul\":12373:12433   */\n    tag_116:\n        /* \"#utility.yul\":12401:12404   */\n      0x00\n        /* \"#utility.yul\":12422:12427   */\n      dup2\n        /* \"#utility.yul\":12415:12427   */\n      swap1\n      pop\n        /* \"#utility.yul\":12373:12433   */\n      swap2\n      swap1\n      pop\n      jump\t// out\n        /* \"#utility.yul\":12439:12581   */\n    tag_117:\n        /* \"#utility.yul\":12489:12498   */\n      0x00\n        /* \"#utility.yul\":12522:12575   */\n      tag_247\n        /* \"#utility.yul\":12540:12574   */\n      tag_248\n        /* \"#utility.yul\":12549:12573   */\n      tag_249\n        /* \"#utility.yul\":12567:12572   */\n      dup5\n        /* \"#utility.yul\":12549:12573   */\n      tag_103\n      jump\t// in\n    tag_249:\n        /* \"#utility.yul\":12540:12574   */\n      tag_116\n      jump\t// in\n    tag_248:\n        /* \"#utility.yul\":12522:12575   */\n      tag_103\n      jump\t// in\n    tag_247:\n        /* \"#utility.yul\":12509:12575   */\n      swap1\n      pop\n        /* \"#utility.yul\":12439:12581   */\n      swap2\n      swap1\n      pop\n      jump\t// out\n        /* \"#utility.yul\":12587:12662   */\n    tag_118:\n        /* \"#utility.yul\":12630:12633   */\n      0x00\n        /* \"#utility.yul\":12651:12656   */\n      dup2\n        /* \"#utility.yul\":12644:12656   */\n      swap1\n      pop\n        /* \"#utility.yul\":12587:12662   */\n      swap2\n      swap1\n      pop\n      jump\t// out\n        /* \"#utility.yul\":12668:12937   */\n    tag_119:\n        /* \"#utility.yul\":12778:12817   */\n      tag_252\n        /* \"#utility.yul\":12809:12816   */\n      dup4\n        /* \"#utility.yul\":12778:12817   */\n      tag_117\n      jump\t// in\n    tag_252:\n        /* \"#utility.yul\":12839:12930   */\n      tag_253\n        /* \"#utility.yul\":12888:12929   */\n      tag_254\n        /* \"#utility.yul\":12912:12928   */\n      dup3\n        /* \"#utility.yul\":12888:12929   */\n      tag_118\n      jump\t// in\n    tag_254:\n        /* \"#utility.yul\":12880:12886   */\n      dup5\n        /* \"#utility.yul\":12873:12877   */\n      dup5\n        /* \"#utility.yul\":12867:12878   */\n      sload\n        /* \"#utility.yul\":12839:12930   */\n      tag_115\n      jump\t// in\n    tag_253:\n        /* \"#utility.yul\":12833:12837   */\n      dup3\n        /* \"#utility.yul\":12826:12931   */\n      sstore\n        /* \"#utility.yul\":12744:12937   */\n      pop\n        /* \"#utility.yul\":12668:12937   */\n      pop\n      pop\n      pop\n      jump\t// out\n        /* \"#utility.yul\":12943:13016   */\n    tag_120:\n        /* \"#utility.yul\":12988:12991   */\n      0x00\n        /* \"#utility.yul\":12943:13016   */\n      swap1\n      jump\t// out\n        /* \"#utility.yul\":13022:13211   */\n    tag_121:\n        /* \"#utility.yul\":13099:13131   */\n      tag_257\n      tag_120\n      jump\t// in\n    tag_257:\n        /* \"#utility.yul\":13140:13205   */\n      tag_258\n        /* \"#utility.yul\":13198:13204   */\n      dup2\n        /* \"#utility.yul\":13190:13196   */\n      dup5\n        /* \"#utility.yul\":13184:13188   */\n      dup5\n        /* \"#utility.yul\":13140:13205   */\n      tag_119\n      jump\t// in\n    tag_258:\n        /* \"#utility.yul\":13075:13211   */\n      pop\n        /* \"#utility.yul\":13022:13211   */\n      pop\n      pop\n      jump\t// out\n        /* \"#utility.yul\":13217:13403   */\n    tag_122:\n        /* \"#utility.yul\":13277:13397   */\n    tag_260:\n        /* \"#utility.yul\":13294:13297   */\n      dup2\n        /* \"#utility.yul\":13287:13292   */\n      dup2\n        /* \"#utility.yul\":13284:13298   */\n      lt\n        /* \"#utility.yul\":13277:13397   */\n      iszero\n      tag_262\n      jumpi\n        /* \"#utility.yul\":13348:13387   */\n      tag_263\n        /* \"#utility.yul\":13385:13386   */\n      0x00\n        /* \"#utility.yul\":13378:13383   */\n      dup3\n        /* \"#utility.yul\":13348:13387   */\n      tag_121\n      jump\t// in\n    tag_263:\n        /* \"#utility.yul\":13321:13322   */\n      0x01\n        /* \"#utility.yul\":13314:13319   */\n      dup2\n        /* \"#utility.yul\":13310:13323   */\n      add\n        /* \"#utility.yul\":13301:13323   */\n      swap1\n      pop\n        /* \"#utility.yul\":13277:13397   */\n      jump(tag_260)\n    tag_262:\n        /* \"#utility.yul\":13217:13403   */\n      pop\n      pop\n      jump\t// out\n        /* \"#utility.yul\":13409:13952   */\n    tag_123:\n        /* \"#utility.yul\":13510:13512   */\n      0x1f\n        /* \"#utility.yul\":13505:13508   */\n      dup3\n        /* \"#utility.yul\":13502:13513   */\n      gt\n        /* \"#utility.yul\":13499:13945   */\n      iszero\n      tag_265\n      jumpi\n        /* \"#utility.yul\":13544:13582   */\n      tag_266\n        /* \"#utility.yul\":13576:13581   */\n      dup2\n        /* \"#utility.yul\":13544:13582   */\n      tag_112\n      jump\t// in\n    tag_266:\n        /* \"#utility.yul\":13628:13657   */\n      tag_267\n        /* \"#utility.yul\":13646:13656   */\n      dup5\n        /* \"#utility.yul\":13628:13657   */\n      tag_113\n      jump\t// in\n    tag_267:\n        /* \"#utility.yul\":13618:13626   */\n      dup2\n        /* \"#utility.yul\":13614:13658   */\n      add\n        /* \"#utility.yul\":13811:13813   */\n      0x20\n        /* \"#utility.yul\":13799:13809   */\n      dup6\n        /* \"#utility.yul\":13796:13814   */\n      lt\n        /* \"#utility.yul\":13793:13842   */\n      iszero\n      tag_268\n      jumpi\n        /* \"#utility.yul\":13832:13840   */\n      dup2\n        /* \"#utility.yul\":13817:13840   */\n      swap1\n      pop\n        /* \"#utility.yul\":13793:13842   */\n    tag_268:\n        /* \"#utility.yul\":13855:13935   */\n      tag_269\n        /* \"#utility.yul\":13911:13933   */\n      tag_270\n        /* \"#utility.yul\":13929:13932   */\n      dup6\n        /* \"#utility.yul\":13911:13933   */\n      tag_113\n      jump\t// in\n    tag_270:\n        /* \"#utility.yul\":13901:13909   */\n      dup4\n        /* \"#utility.yul\":13897:13934   */\n      add\n        /* \"#utility.yul\":13884:13895   */\n      dup3\n        /* \"#utility.yul\":13855:13935   */\n      tag_122\n      jump\t// in\n    tag_269:\n        /* \"#utility.yul\":13514:13945   */\n      pop\n      pop\n        /* \"#utility.yul\":13499:13945   */\n    tag_265:\n        /* \"#utility.yul\":13409:13952   */\n      pop\n      pop\n      pop\n      jump\t// out\n        /* \"#utility.yul\":13958:14075   */\n    tag_124:\n        /* \"#utility.yul\":14012:14020   */\n      0x00\n        /* \"#utility.yul\":14062:14067   */\n      dup3\n        /* \"#utility.yul\":14056:14060   */\n      dup3\n        /* \"#utility.yul\":14052:14068   */\n      shr\n        /* \"#utility.yul\":14031:14068   */\n      swap1\n      pop\n        /* \"#utility.yul\":13958:14075   */\n      swap3\n      swap2\n      pop\n      pop\n      jump\t// out\n        /* \"#utility.yul\":14081:14250   */\n    tag_125:\n        /* \"#utility.yul\":14125:14131   */\n      0x00\n        /* \"#utility.yul\":14158:14209   */\n      tag_273\n        /* \"#utility.yul\":14206:14207   */\n      0x00\n        /* \"#utility.yul\":14202:14208   */\n      not\n        /* \"#utility.yul\":14194:14199   */\n      dup5\n        /* \"#utility.yul\":14191:14192   */\n      0x08\n        /* \"#utility.yul\":14187:14200   */\n      mul\n        /* \"#utility.yul\":14158:14209   */\n      tag_124\n      jump\t// in\n    tag_273:\n        /* \"#utility.yul\":14154:14210   */\n      not\n        /* \"#utility.yul\":14239:14243   */\n      dup1\n        /* \"#utility.yul\":14233:14237   */\n      dup4\n        /* \"#utility.yul\":14229:14244   */\n      and\n        /* \"#utility.yul\":14219:14244   */\n      swap2\n      pop\n        /* \"#utility.yul\":14132:14250   */\n      pop\n        /* \"#utility.yul\":14081:14250   */\n      swap3\n      swap2\n      pop\n      pop\n      jump\t// out\n        /* \"#utility.yul\":14255:14550   */\n    tag_126:\n        /* \"#utility.yul\":14331:14335   */\n      0x00\n        /* \"#utility.yul\":14477:14506   */\n      tag_275\n        /* \"#utility.yul\":14502:14505   */\n      dup4\n        /* \"#utility.yul\":14496:14500   */\n      dup4\n        /* \"#utility.yul\":14477:14506   */\n      tag_125\n      jump\t// in\n    tag_275:\n        /* \"#utility.yul\":14469:14506   */\n      swap2\n      pop\n        /* \"#utility.yul\":14539:14542   */\n      dup3\n        /* \"#utility.yul\":14536:14537   */\n      0x02\n        /* \"#utility.yul\":14532:14543   */\n      mul\n        /* \"#utility.yul\":14526:14530   */\n      dup3\n        /* \"#utility.yul\":14523:14544   */\n      or\n        /* \"#utility.yul\":14515:14544   */\n      swap1\n      pop\n        /* \"#utility.yul\":14255:14550   */\n      swap3\n      swap2\n      pop\n      pop\n      jump\t// out\n        /* \"#utility.yul\":14555:15950   */\n    tag_31:\n        /* \"#utility.yul\":14672:14709   */\n      tag_277\n        /* \"#utility.yul\":14705:14708   */\n      dup3\n        /* \"#utility.yul\":14672:14709   */\n      tag_99\n      jump\t// in\n    tag_277:\n        /* \"#utility.yul\":14774:14792   */\n      0xffffffffffffffff\n        /* \"#utility.yul\":14766:14772   */\n      dup2\n        /* \"#utility.yul\":14763:14793   */\n      gt\n        /* \"#utility.yul\":14760:14816   */\n      iszero\n      tag_278\n      jumpi\n        /* \"#utility.yul\":14796:14814   */\n      tag_279\n      tag_87\n      jump\t// in\n    tag_279:\n        /* \"#utility.yul\":14760:14816   */\n    tag_278:\n        /* \"#utility.yul\":14840:14878   */\n      tag_280\n        /* \"#utility.yul\":14872:14876   */\n      dup3\n        /* \"#utility.yul\":14866:14877   */\n      sload\n        /* \"#utility.yul\":14840:14878   */\n      tag_37\n      jump\t// in\n    tag_280:\n        /* \"#utility.yul\":14925:14992   */\n      tag_281\n        /* \"#utility.yul\":14985:14991   */\n      dup3\n        /* \"#utility.yul\":14977:14983   */\n      dup3\n        /* \"#utility.yul\":14971:14975   */\n      dup6\n        /* \"#utility.yul\":14925:14992   */\n      tag_123\n      jump\t// in\n    tag_281:\n        /* \"#utility.yul\":15019:15020   */\n      0x00\n        /* \"#utility.yul\":15043:15047   */\n      0x20\n        /* \"#utility.yul\":15030:15047   */\n      swap1\n      pop\n        /* \"#utility.yul\":15075:15077   */\n      0x1f\n        /* \"#utility.yul\":15067:15073   */\n      dup4\n        /* \"#utility.yul\":15064:15078   */\n      gt\n        /* \"#utility.yul\":15092:15093   */\n      0x01\n        /* \"#utility.yul\":15087:15705   */\n      dup2\n      eq\n      tag_283\n      jumpi\n        /* \"#utility.yul\":15749:15750   */\n      0x00\n        /* \"#utility.yul\":15766:15772   */\n      dup5\n        /* \"#utility.yul\":15763:15840   */\n      iszero\n      tag_284\n      jumpi\n        /* \"#utility.yul\":15815:15824   */\n      dup3\n        /* \"#utility.yul\":15810:15813   */\n      dup8\n        /* \"#utility.yul\":15806:15825   */\n      add\n        /* \"#utility.yul\":15800:15826   */\n      mload\n        /* \"#utility.yul\":15791:15826   */\n      swap1\n      pop\n        /* \"#utility.yul\":15763:15840   */\n    tag_284:\n        /* \"#utility.yul\":15866:15933   */\n      tag_285\n        /* \"#utility.yul\":15926:15932   */\n      dup6\n        /* \"#utility.yul\":15919:15924   */\n      dup3\n        /* \"#utility.yul\":15866:15933   */\n      tag_126\n      jump\t// in\n    tag_285:\n        /* \"#utility.yul\":15860:15864   */\n      dup7\n        /* \"#utility.yul\":15853:15934   */\n      sstore\n        /* \"#utility.yul\":15722:15944   */\n      pop\n        /* \"#utility.yul\":15057:15944   */\n      jump(tag_282)\n        /* \"#utility.yul\":15087:15705   */\n    tag_283:\n        /* \"#utility.yul\":15139:15143   */\n      0x1f\n        /* \"#utility.yul\":15135:15144   */\n      not\n        /* \"#utility.yul\":15127:15133   */\n      dup5\n        /* \"#utility.yul\":15123:15145   */\n      and\n        /* \"#utility.yul\":15173:15210   */\n      tag_286\n        /* \"#utility.yul\":15205:15209   */\n      dup7\n        /* \"#utility.yul\":15173:15210   */\n      tag_112\n      jump\t// in\n    tag_286:\n        /* \"#utility.yul\":15232:15233   */\n      0x00\n        /* \"#utility.yul\":15246:15454   */\n    tag_287:\n        /* \"#utility.yul\":15260:15267   */\n      dup3\n        /* \"#utility.yul\":15257:15258   */\n      dup2\n        /* \"#utility.yul\":15254:15268   */\n      lt\n        /* \"#utility.yul\":15246:15454   */\n      iszero\n      tag_289\n      jumpi\n        /* \"#utility.yul\":15339:15348   */\n      dup5\n        /* \"#utility.yul\":15334:15337   */\n      dup10\n        /* \"#utility.yul\":15330:15349   */\n      add\n        /* \"#utility.yul\":15324:15350   */\n      mload\n        /* \"#utility.yul\":15316:15322   */\n      dup3\n        /* \"#utility.yul\":15309:15351   */\n      sstore\n        /* \"#utility.yul\":15390:15391   */\n      0x01\n        /* \"#utility.yul\":15382:15388   */\n      dup3\n        /* \"#utility.yul\":15378:15392   */\n      add\n        /* \"#utility.yul\":15368:15392   */\n      swap2\n      pop\n        /* \"#utility.yul\":15437:15439   */\n      0x20\n        /* \"#utility.yul\":15426:15435   */\n      dup6\n        /* \"#utility.yul\":15422:15440   */\n      add\n        /* \"#utility.yul\":15409:15440   */\n      swap5\n      pop\n        /* \"#utility.yul\":15283:15287   */\n      0x20\n        /* \"#utility.yul\":15280:15281   */\n      dup2\n        /* \"#utility.yul\":15276:15288   */\n      add\n        /* \"#utility.yul\":15271:15288   */\n      swap1\n      pop\n        /* \"#utility.yul\":15246:15454   */\n      jump(tag_287)\n    tag_289:\n        /* \"#utility.yul\":15482:15488   */\n      dup7\n        /* \"#utility.yul\":15473:15480   */\n      dup4\n        /* \"#utility.yul\":15470:15489   */\n      lt\n        /* \"#utility.yul\":15467:15646   */\n      iszero\n      tag_290\n      jumpi\n        /* \"#utility.yul\":15540:15549   */\n      dup5\n        /* \"#utility.yul\":15535:15538   */\n      dup10\n        /* \"#utility.yul\":15531:15550   */\n      add\n        /* \"#utility.yul\":15525:15551   */\n      mload\n        /* \"#utility.yul\":15583:15631   */\n      tag_291\n        /* \"#utility.yul\":15625:15629   */\n      0x1f\n        /* \"#utility.yul\":15617:15623   */\n      dup10\n        /* \"#utility.yul\":15613:15630   */\n      and\n        /* \"#utility.yul\":15602:15611   */\n      dup3\n        /* \"#utility.yul\":15583:15631   */\n      tag_125\n      jump\t// in\n    tag_291:\n        /* \"#utility.yul\":15575:15581   */\n      dup4\n        /* \"#utility.yul\":15568:15632   */\n      sstore\n        /* \"#utility.yul\":15490:15646   */\n      pop\n        /* \"#utility.yul\":15467:15646   */\n    tag_290:\n        /* \"#utility.yul\":15692:15693   */\n      0x01\n        /* \"#utility.yul\":15688:15689   */\n      0x02\n        /* \"#utility.yul\":15680:15686   */\n      dup9\n        /* \"#utility.yul\":15676:15690   */\n      mul\n        /* \"#utility.yul\":15672:15694   */\n      add\n        /* \"#utility.yul\":15666:15670   */\n      dup9\n        /* \"#utility.yul\":15659:15695   */\n      sstore\n        /* \"#utility.yul\":15094:15705   */\n      pop\n      pop\n      pop\n        /* \"#utility.yul\":15057:15944   */\n    tag_282:\n      pop\n        /* \"#utility.yul\":14647:15950   */\n      pop\n      pop\n      pop\n        /* \"#utility.yul\":14555:15950   */\n      pop\n      pop\n      jump\t// out\n        /* \"#utility.yul\":15956:16125   */\n    tag_127:\n        /* \"#utility.yul\":16096:16117   */\n      0x5573657220646f6573206e6f7420657869737400000000000000000000000000\n        /* \"#utility.yul\":16092:16093   */\n      0x00\n        /* \"#utility.yul\":16084:16090   */\n      dup3\n        /* \"#utility.yul\":16080:16094   */\n      add\n        /* \"#utility.yul\":16073:16118   */\n      mstore\n        /* \"#utility.yul\":15956:16125   */\n      pop\n      jump\t// out\n        /* \"#utility.yul\":16131:16497   */\n    tag_128:\n        /* \"#utility.yul\":16273:16276   */\n      0x00\n        /* \"#utility.yul\":16294:16361   */\n      tag_294\n        /* \"#utility.yul\":16358:16360   */\n      0x13\n        /* \"#utility.yul\":16353:16356   */\n      dup4\n        /* \"#utility.yul\":16294:16361   */\n      tag_100\n      jump\t// in\n    tag_294:\n        /* \"#utility.yul\":16287:16361   */\n      swap2\n      pop\n        /* \"#utility.yul\":16370:16463   */\n      tag_295\n        /* \"#utility.yul\":16459:16462   */\n      dup3\n        /* \"#utility.yul\":16370:16463   */\n      tag_127\n      jump\t// in\n    tag_295:\n        /* \"#utility.yul\":16488:16490   */\n      0x20\n        /* \"#utility.yul\":16483:16486   */\n      dup3\n        /* \"#utility.yul\":16479:16491   */\n      add\n        /* \"#utility.yul\":16472:16491   */\n      swap1\n      pop\n        /* \"#utility.yul\":16131:16497   */\n      swap2\n      swap1\n      pop\n      jump\t// out\n        /* \"#utility.yul\":16503:16922   */\n    tag_60:\n        /* \"#utility.yul\":16669:16673   */\n      0x00\n        /* \"#utility.yul\":16707:16709   */\n      0x20\n        /* \"#utility.yul\":16696:16705   */\n      dup3\n        /* \"#utility.yul\":16692:16710   */\n      add\n        /* \"#utility.yul\":16684:16710   */\n      swap1\n      pop\n        /* \"#utility.yul\":16756:16765   */\n      dup2\n        /* \"#utility.yul\":16750:16754   */\n      dup2\n        /* \"#utility.yul\":16746:16766   */\n      sub\n        /* \"#utility.yul\":16742:16743   */\n      0x00\n        /* \"#utility.yul\":16731:16740   */\n      dup4\n        /* \"#utility.yul\":16727:16744   */\n      add\n        /* \"#utility.yul\":16720:16767   */\n      mstore\n        /* \"#utility.yul\":16784:16915   */\n      tag_297\n        /* \"#utility.yul\":16910:16914   */\n      dup2\n        /* \"#utility.yul\":16784:16915   */\n      tag_128\n      jump\t// in\n    tag_297:\n        /* \"#utility.yul\":16776:16915   */\n      swap1\n      pop\n        /* \"#utility.yul\":16503:16922   */\n      swap2\n      swap1\n      pop\n      jump\t// out\n\n    auxdata: 0xa26469706673582212204bf484d0dfebe5c821487031dad04839d24b5244c11541c2a75ec63661be42a564736f6c63430008180033\n}\n",
				"bytecode": {
					"linkReferences": {},
					"object": "608060405234801561000f575f80fd5b506112518061001d5f395ff3fe608060405234801561000f575f80fd5b506004361061003f575f3560e01c806393e54a5614610043578063a87430ba1461005f578063cc3d967b14610094575b5f80fd5b61005d60048036038101906100589190610ae8565b6100c8565b005b61007960048036038101906100749190610c16565b6103c8565b60405161008b96959493929190610ce2565b60405180910390f35b6100ae60048036038101906100a99190610c16565b610637565b6040516100bf959493929190610d5d565b60405180910390f35b5f15155f803373ffffffffffffffffffffffffffffffffffffffff1673ffffffffffffffffffffffffffffffffffffffff1681526020019081526020015f205f9054906101000a900460ff16151514610156576040517f08c379a000000000000000000000000000000000000000000000000000000000815260040161014d90610e14565b60405180910390fd5b5f15156002826040516101699190610e6c565b90815260200160405180910390205f9054906101000a900460ff161515146101c6576040517f08c379a00000000000000000000000000000000000000000000000000000000081526004016101bd90610ecc565b60405180910390fd5b5f6040518060c001604052803373ffffffffffffffffffffffffffffffffffffffff1681526020018681526020018581526020018481526020018381526020014281525090508060015f3373ffffffffffffffffffffffffffffffffffffffff1673ffffffffffffffffffffffffffffffffffffffff1681526020019081526020015f205f820151815f015f6101000a81548173ffffffffffffffffffffffffffffffffffffffff021916908373ffffffffffffffffffffffffffffffffffffffff16021790555060208201518160010190816102a391906110e4565b5060408201518160020190816102b991906110e4565b5060608201518160030190816102cf91906110e4565b5060808201518160040190816102e591906110e4565b5060a0820151816005015590505060015f803373ffffffffffffffffffffffffffffffffffffffff1673ffffffffffffffffffffffffffffffffffffffff1681526020019081526020015f205f6101000a81548160ff02191690831515021790555060016002836040516103599190610e6c565b90815260200160405180910390205f6101000a81548160ff021916908315150217905550423373ffffffffffffffffffffffffffffffffffffffff167fe29d35093005f4d575e1003753426b57a7f64378ba73332eef9c6ccc2b8decd660405160405180910390a35050505050565b6001602052805f5260405f205f91509050805f015f9054906101000a900473ffffffffffffffffffffffffffffffffffffffff169080600101805461040c90610f17565b80601f016020809104026020016040519081016040528092919081815260200182805461043890610f17565b80156104835780601f1061045a57610100808354040283529160200191610483565b820191905f5260205f20905b81548152906001019060200180831161046657829003601f168201915b50505050509080600201805461049890610f17565b80601f01602080910402602001604051908101604052809291908181526020018280546104c490610f17565b801561050f5780601f106104e65761010080835404028352916020019161050f565b820191905f5260205f20905b8154815290600101906020018083116104f257829003601f168201915b50505050509080600301805461052490610f17565b80601f016020809104026020016040519081016040528092919081815260200182805461055090610f17565b801561059b5780601f106105725761010080835404028352916020019161059b565b820191905f5260205f20905b81548152906001019060200180831161057e57829003601f168201915b5050505050908060040180546105b090610f17565b80601f01602080910402602001604051908101604052809291908181526020018280546105dc90610f17565b80156106275780601f106105fe57610100808354040283529160200191610627565b820191905f5260205f20905b81548152906001019060200180831161060a57829003601f168201915b5050505050908060050154905086565b6060806060805f8073ffffffffffffffffffffffffffffffffffffffff1660015f8873ffffffffffffffffffffffffffffffffffffffff1673ffffffffffffffffffffffffffffffffffffffff1681526020019081526020015f205f015f9054906101000a900473ffffffffffffffffffffffffffffffffffffffff1673ffffffffffffffffffffffffffffffffffffffff160361070a576040517f08c379a0000000000000000000000000000000000000000000000000000000008152600401610701906111fd565b60405180910390fd5b5f60015f8873ffffffffffffffffffffffffffffffffffffffff1673ffffffffffffffffffffffffffffffffffffffff1681526020019081526020015f20905080600101816002018260030183600401846005015484805461076b90610f17565b80601f016020809104026020016040519081016040528092919081815260200182805461079790610f17565b80156107e25780601f106107b9576101008083540402835291602001916107e2565b820191905f5260205f20905b8154815290600101906020018083116107c557829003601f168201915b505050505094508380546107f590610f17565b80601f016020809104026020016040519081016040528092919081815260200182805461082190610f17565b801561086c5780601f106108435761010080835404028352916020019161086c565b820191905f5260205f20905b81548152906001019060200180831161084f57829003601f168201915b5050505050935082805461087f90610f17565b80601f01602080910402602001604051908101604052809291908181526020018280546108ab90610f17565b80156108f65780601f106108cd576101008083540402835291602001916108f6565b820191905f5260205f20905b8154815290600101906020018083116108d957829003601f168201915b5050505050925081805461090990610f17565b80601f016020809104026020016040519081016040528092919081815260200182805461093590610f17565b80156109805780601f1061095757610100808354040283529160200191610980565b820191905f5260205f20905b81548152906001019060200180831161096357829003601f168201915b50505050509150955095509550955095505091939590929450565b5f604051905090565b5f80fd5b5f80fd5b5f80fd5b5f80fd5b5f601f19601f8301169050919050565b7f4e487b71000000000000000000000000000000000000000000000000000000005f52604160045260245ffd5b6109fa826109b4565b810181811067ffffffffffffffff82111715610a1957610a186109c4565b5b80604052505050565b5f610a2b61099b565b9050610a3782826109f1565b919050565b5f67ffffffffffffffff821115610a5657610a556109c4565b5b610a5f826109b4565b9050602081019050919050565b828183375f83830152505050565b5f610a8c610a8784610a3c565b610a22565b905082815260208101848484011115610aa857610aa76109b0565b5b610ab3848285610a6c565b509392505050565b5f82601f830112610acf57610ace6109ac565b5b8135610adf848260208601610a7a565b91505092915050565b5f805f8060808587031215610b0057610aff6109a4565b5b5f85013567ffffffffffffffff811115610b1d57610b1c6109a8565b5b610b2987828801610abb565b945050602085013567ffffffffffffffff811115610b4a57610b496109a8565b5b610b5687828801610abb565b935050604085013567ffffffffffffffff811115610b7757610b766109a8565b5b610b8387828801610abb565b925050606085013567ffffffffffffffff811115610ba457610ba36109a8565b5b610bb087828801610abb565b91505092959194509250565b5f73ffffffffffffffffffffffffffffffffffffffff82169050919050565b5f610be582610bbc565b9050919050565b610bf581610bdb565b8114610bff575f80fd5b50565b5f81359050610c1081610bec565b92915050565b5f60208284031215610c2b57610c2a6109a4565b5b5f610c3884828501610c02565b91505092915050565b610c4a81610bdb565b82525050565b5f81519050919050565b5f82825260208201905092915050565b5f5b83811015610c87578082015181840152602081019050610c6c565b5f8484015250505050565b5f610c9c82610c50565b610ca68185610c5a565b9350610cb6818560208601610c6a565b610cbf816109b4565b840191505092915050565b5f819050919050565b610cdc81610cca565b82525050565b5f60c082019050610cf55f830189610c41565b8181036020830152610d078188610c92565b90508181036040830152610d1b8187610c92565b90508181036060830152610d2f8186610c92565b90508181036080830152610d438185610c92565b9050610d5260a0830184610cd3565b979650505050505050565b5f60a0820190508181035f830152610d758188610c92565b90508181036020830152610d898187610c92565b90508181036040830152610d9d8186610c92565b90508181036060830152610db18185610c92565b9050610dc06080830184610cd3565b9695505050505050565b7f5573657220616c726561647920726567697374657265640000000000000000005f82015250565b5f610dfe601783610c5a565b9150610e0982610dca565b602082019050919050565b5f6020820190508181035f830152610e2b81610df2565b9050919050565b5f81905092915050565b5f610e4682610c50565b610e508185610e32565b9350610e60818560208601610c6a565b80840191505092915050565b5f610e778284610e3c565b915081905092915050565b7f416164686172206e756d62657220616c726561647920726567697374657265645f82015250565b5f610eb6602083610c5a565b9150610ec182610e82565b602082019050919050565b5f6020820190508181035f830152610ee381610eaa565b9050919050565b7f4e487b71000000000000000000000000000000000000000000000000000000005f52602260045260245ffd5b5f6002820490506001821680610f2e57607f821691505b602082108103610f4157610f40610eea565b5b50919050565b5f819050815f5260205f209050919050565b5f6020601f8301049050919050565b5f82821b905092915050565b5f60088302610fa37fffffffffffffffffffffffffffffffffffffffffffffffffffffffffffffffff82610f68565b610fad8683610f68565b95508019841693508086168417925050509392505050565b5f819050919050565b5f610fe8610fe3610fde84610cca565b610fc5565b610cca565b9050919050565b5f819050919050565b61100183610fce565b61101561100d82610fef565b848454610f74565b825550505050565b5f90565b61102961101d565b611034818484610ff8565b505050565b5b818110156110575761104c5f82611021565b60018101905061103a565b5050565b601f82111561109c5761106d81610f47565b61107684610f59565b81016020851015611085578190505b61109961109185610f59565b830182611039565b50505b505050565b5f82821c905092915050565b5f6110bc5f19846008026110a1565b1980831691505092915050565b5f6110d483836110ad565b9150826002028217905092915050565b6110ed82610c50565b67ffffffffffffffff811115611106576111056109c4565b5b6111108254610f17565b61111b82828561105b565b5f60209050601f83116001811461114c575f841561113a578287015190505b61114485826110c9565b8655506111ab565b601f19841661115a86610f47565b5f5b828110156111815784890151825560018201915060208501945060208101905061115c565b8683101561119e578489015161119a601f8916826110ad565b8355505b6001600288020188555050505b505050505050565b7f5573657220646f6573206e6f74206578697374000000000000000000000000005f82015250565b5f6111e7601383610c5a565b91506111f2826111b3565b602082019050919050565b5f6020820190508181035f830152611214816111db565b905091905056fea26469706673582212204bf484d0dfebe5c821487031dad04839d24b5244c11541c2a75ec63661be42a564736f6c63430008180033",
					"opcodes": "PUSH1 0x80 PUSH1 0x40 MSTORE CALLVALUE DUP1 ISZERO PUSH2 0xF JUMPI PUSH0 DUP1 REVERT JUMPDEST POP PUSH2 0x1251 DUP1 PUSH2 0x1D PUSH0 CODECOPY PUSH0 RETURN INVALID PUSH1 0x80 PUSH1 0x40 MSTORE CALLVALUE DUP1 ISZERO PUSH2 0xF JUMPI PUSH0 DUP1 REVERT JUMPDEST POP PUSH1 0x4 CALLDATASIZE LT PUSH2 0x3F JUMPI PUSH0 CALLDATALOAD PUSH1 0xE0 SHR DUP1 PUSH4 0x93E54A56 EQ PUSH2 0x43 JUMPI DUP1 PUSH4 0xA87430BA EQ PUSH2 0x5F JUMPI DUP1 PUSH4 0xCC3D967B EQ PUSH2 0x94 JUMPI JUMPDEST PUSH0 DUP1 REVERT JUMPDEST PUSH2 0x5D PUSH1 0x4 DUP1 CALLDATASIZE SUB DUP2 ADD SWAP1 PUSH2 0x58 SWAP2 SWAP1 PUSH2 0xAE8 JUMP JUMPDEST PUSH2 0xC8 JUMP JUMPDEST STOP JUMPDEST PUSH2 0x79 PUSH1 0x4 DUP1 CALLDATASIZE SUB DUP2 ADD SWAP1 PUSH2 0x74 SWAP2 SWAP1 PUSH2 0xC16 JUMP JUMPDEST PUSH2 0x3C8 JUMP JUMPDEST PUSH1 0x40 MLOAD PUSH2 0x8B SWAP7 SWAP6 SWAP5 SWAP4 SWAP3 SWAP2 SWAP1 PUSH2 0xCE2 JUMP JUMPDEST PUSH1 0x40 MLOAD DUP1 SWAP2 SUB SWAP1 RETURN JUMPDEST PUSH2 0xAE PUSH1 0x4 DUP1 CALLDATASIZE SUB DUP2 ADD SWAP1 PUSH2 0xA9 SWAP2 SWAP1 PUSH2 0xC16 JUMP JUMPDEST PUSH2 0x637 JUMP JUMPDEST PUSH1 0x40 MLOAD PUSH2 0xBF SWAP6 SWAP5 SWAP4 SWAP3 SWAP2 SWAP1 PUSH2 0xD5D JUMP JUMPDEST PUSH1 0x40 MLOAD DUP1 SWAP2 SUB SWAP1 RETURN JUMPDEST PUSH0 ISZERO ISZERO PUSH0 DUP1 CALLER PUSH20 0xFFFFFFFFFFFFFFFFFFFFFFFFFFFFFFFFFFFFFFFF AND PUSH20 0xFFFFFFFFFFFFFFFFFFFFFFFFFFFFFFFFFFFFFFFF AND DUP2 MSTORE PUSH1 0x20 ADD SWAP1 DUP2 MSTORE PUSH1 0x20 ADD PUSH0 KECCAK256 PUSH0 SWAP1 SLOAD SWAP1 PUSH2 0x100 EXP SWAP1 DIV PUSH1 0xFF AND ISZERO ISZERO EQ PUSH2 0x156 JUMPI PUSH1 0x40 MLOAD PUSH32 0x8C379A000000000000000000000000000000000000000000000000000000000 DUP2 MSTORE PUSH1 0x4 ADD PUSH2 0x14D SWAP1 PUSH2 0xE14 JUMP JUMPDEST PUSH1 0x40 MLOAD DUP1 SWAP2 SUB SWAP1 REVERT JUMPDEST PUSH0 ISZERO ISZERO PUSH1 0x2 DUP3 PUSH1 0x40 MLOAD PUSH2 0x169 SWAP2 SWAP1 PUSH2 0xE6C JUMP JUMPDEST SWAP1 DUP2 MSTORE PUSH1 0x20 ADD PUSH1 0x40 MLOAD DUP1 SWAP2 SUB SWAP1 KECCAK256 PUSH0 SWAP1 SLOAD SWAP1 PUSH2 0x100 EXP SWAP1 DIV PUSH1 0xFF AND ISZERO ISZERO EQ PUSH2 0x1C6 JUMPI PUSH1 0x40 MLOAD PUSH32 0x8C379A000000000000000000000000000000000000000000000000000000000 DUP2 MSTORE PUSH1 0x4 ADD PUSH2 0x1BD SWAP1 PUSH2 0xECC JUMP JUMPDEST PUSH1 0x40 MLOAD DUP1 SWAP2 SUB SWAP1 REVERT JUMPDEST PUSH0 PUSH1 0x40 MLOAD DUP1 PUSH1 0xC0 ADD PUSH1 0x40 MSTORE DUP1 CALLER PUSH20 0xFFFFFFFFFFFFFFFFFFFFFFFFFFFFFFFFFFFFFFFF AND DUP2 MSTORE PUSH1 0x20 ADD DUP7 DUP2 MSTORE PUSH1 0x20 ADD DUP6 DUP2 MSTORE PUSH1 0x20 ADD DUP5 DUP2 MSTORE PUSH1 0x20 ADD DUP4 DUP2 MSTORE PUSH1 0x20 ADD TIMESTAMP DUP2 MSTORE POP SWAP1 POP DUP1 PUSH1 0x1 PUSH0 CALLER PUSH20 0xFFFFFFFFFFFFFFFFFFFFFFFFFFFFFFFFFFFFFFFF AND PUSH20 0xFFFFFFFFFFFFFFFFFFFFFFFFFFFFFFFFFFFFFFFF AND DUP2 MSTORE PUSH1 0x20 ADD SWAP1 DUP2 MSTORE PUSH1 0x20 ADD PUSH0 KECCAK256 PUSH0 DUP3 ADD MLOAD DUP2 PUSH0 ADD PUSH0 PUSH2 0x100 EXP DUP2 SLOAD DUP2 PUSH20 0xFFFFFFFFFFFFFFFFFFFFFFFFFFFFFFFFFFFFFFFF MUL NOT AND SWAP1 DUP4 PUSH20 0xFFFFFFFFFFFFFFFFFFFFFFFFFFFFFFFFFFFFFFFF AND MUL OR SWAP1 SSTORE POP PUSH1 0x20 DUP3 ADD MLOAD DUP2 PUSH1 0x1 ADD SWAP1 DUP2 PUSH2 0x2A3 SWAP2 SWAP1 PUSH2 0x10E4 JUMP JUMPDEST POP PUSH1 0x40 DUP3 ADD MLOAD DUP2 PUSH1 0x2 ADD SWAP1 DUP2 PUSH2 0x2B9 SWAP2 SWAP1 PUSH2 0x10E4 JUMP JUMPDEST POP PUSH1 0x60 DUP3 ADD MLOAD DUP2 PUSH1 0x3 ADD SWAP1 DUP2 PUSH2 0x2CF SWAP2 SWAP1 PUSH2 0x10E4 JUMP JUMPDEST POP PUSH1 0x80 DUP3 ADD MLOAD DUP2 PUSH1 0x4 ADD SWAP1 DUP2 PUSH2 0x2E5 SWAP2 SWAP1 PUSH2 0x10E4 JUMP JUMPDEST POP PUSH1 0xA0 DUP3 ADD MLOAD DUP2 PUSH1 0x5 ADD SSTORE SWAP1 POP POP PUSH1 0x1 PUSH0 DUP1 CALLER PUSH20 0xFFFFFFFFFFFFFFFFFFFFFFFFFFFFFFFFFFFFFFFF AND PUSH20 0xFFFFFFFFFFFFFFFFFFFFFFFFFFFFFFFFFFFFFFFF AND DUP2 MSTORE PUSH1 0x20 ADD SWAP1 DUP2 MSTORE PUSH1 0x20 ADD PUSH0 KECCAK256 PUSH0 PUSH2 0x100 EXP DUP2 SLOAD DUP2 PUSH1 0xFF MUL NOT AND SWAP1 DUP4 ISZERO ISZERO MUL OR SWAP1 SSTORE POP PUSH1 0x1 PUSH1 0x2 DUP4 PUSH1 0x40 MLOAD PUSH2 0x359 SWAP2 SWAP1 PUSH2 0xE6C JUMP JUMPDEST SWAP1 DUP2 MSTORE PUSH1 0x20 ADD PUSH1 0x40 MLOAD DUP1 SWAP2 SUB SWAP1 KECCAK256 PUSH0 PUSH2 0x100 EXP DUP2 SLOAD DUP2 PUSH1 0xFF MUL NOT AND SWAP1 DUP4 ISZERO ISZERO MUL OR SWAP1 SSTORE POP TIMESTAMP CALLER PUSH20 0xFFFFFFFFFFFFFFFFFFFFFFFFFFFFFFFFFFFFFFFF AND PUSH32 0xE29D35093005F4D575E1003753426B57A7F64378BA73332EEF9C6CCC2B8DECD6 PUSH1 0x40 MLOAD PUSH1 0x40 MLOAD DUP1 SWAP2 SUB SWAP1 LOG3 POP POP POP POP POP JUMP JUMPDEST PUSH1 0x1 PUSH1 0x20 MSTORE DUP1 PUSH0 MSTORE PUSH1 0x40 PUSH0 KECCAK256 PUSH0 SWAP2 POP SWAP1 POP DUP1 PUSH0 ADD PUSH0 SWAP1 SLOAD SWAP1 PUSH2 0x100 EXP SWAP1 DIV PUSH20 0xFFFFFFFFFFFFFFFFFFFFFFFFFFFFFFFFFFFFFFFF AND SWAP1 DUP1 PUSH1 0x1 ADD DUP1 SLOAD PUSH2 0x40C SWAP1 PUSH2 0xF17 JUMP JUMPDEST DUP1 PUSH1 0x1F ADD PUSH1 0x20 DUP1 SWAP2 DIV MUL PUSH1 0x20 ADD PUSH1 0x40 MLOAD SWAP1 DUP2 ADD PUSH1 0x40 MSTORE DUP1 SWAP3 SWAP2 SWAP1 DUP2 DUP2 MSTORE PUSH1 0x20 ADD DUP3 DUP1 SLOAD PUSH2 0x438 SWAP1 PUSH2 0xF17 JUMP JUMPDEST DUP1 ISZERO PUSH2 0x483 JUMPI DUP1 PUSH1 0x1F LT PUSH2 0x45A JUMPI PUSH2 0x100 DUP1 DUP4 SLOAD DIV MUL DUP4 MSTORE SWAP2 PUSH1 0x20 ADD SWAP2 PUSH2 0x483 JUMP JUMPDEST DUP3 ADD SWAP2 SWAP1 PUSH0 MSTORE PUSH1 0x20 PUSH0 KECCAK256 SWAP1 JUMPDEST DUP2 SLOAD DUP2 MSTORE SWAP1 PUSH1 0x1 ADD SWAP1 PUSH1 0x20 ADD DUP1 DUP4 GT PUSH2 0x466 JUMPI DUP3 SWAP1 SUB PUSH1 0x1F AND DUP3 ADD SWAP2 JUMPDEST POP POP POP POP POP SWAP1 DUP1 PUSH1 0x2 ADD DUP1 SLOAD PUSH2 0x498 SWAP1 PUSH2 0xF17 JUMP JUMPDEST DUP1 PUSH1 0x1F ADD PUSH1 0x20 DUP1 SWAP2 DIV MUL PUSH1 0x20 ADD PUSH1 0x40 MLOAD SWAP1 DUP2 ADD PUSH1 0x40 MSTORE DUP1 SWAP3 SWAP2 SWAP1 DUP2 DUP2 MSTORE PUSH1 0x20 ADD DUP3 DUP1 SLOAD PUSH2 0x4C4 SWAP1 PUSH2 0xF17 JUMP JUMPDEST DUP1 ISZERO PUSH2 0x50F JUMPI DUP1 PUSH1 0x1F LT PUSH2 0x4E6 JUMPI PUSH2 0x100 DUP1 DUP4 SLOAD DIV MUL DUP4 MSTORE SWAP2 PUSH1 0x20 ADD SWAP2 PUSH2 0x50F JUMP JUMPDEST DUP3 ADD SWAP2 SWAP1 PUSH0 MSTORE PUSH1 0x20 PUSH0 KECCAK256 SWAP1 JUMPDEST DUP2 SLOAD DUP2 MSTORE SWAP1 PUSH1 0x1 ADD SWAP1 PUSH1 0x20 ADD DUP1 DUP4 GT PUSH2 0x4F2 JUMPI DUP3 SWAP1 SUB PUSH1 0x1F AND DUP3 ADD SWAP2 JUMPDEST POP POP POP POP POP SWAP1 DUP1 PUSH1 0x3 ADD DUP1 SLOAD PUSH2 0x524 SWAP1 PUSH2 0xF17 JUMP JUMPDEST DUP1 PUSH1 0x1F ADD PUSH1 0x20 DUP1 SWAP2 DIV MUL PUSH1 0x20 ADD PUSH1 0x40 MLOAD SWAP1 DUP2 ADD PUSH1 0x40 MSTORE DUP1 SWAP3 SWAP2 SWAP1 DUP2 DUP2 MSTORE PUSH1 0x20 ADD DUP3 DUP1 SLOAD PUSH2 0x550 SWAP1 PUSH2 0xF17 JUMP JUMPDEST DUP1 ISZERO PUSH2 0x59B JUMPI DUP1 PUSH1 0x1F LT PUSH2 0x572 JUMPI PUSH2 0x100 DUP1 DUP4 SLOAD DIV MUL DUP4 MSTORE SWAP2 PUSH1 0x20 ADD SWAP2 PUSH2 0x59B JUMP JUMPDEST DUP3 ADD SWAP2 SWAP1 PUSH0 MSTORE PUSH1 0x20 PUSH0 KECCAK256 SWAP1 JUMPDEST DUP2 SLOAD DUP2 MSTORE SWAP1 PUSH1 0x1 ADD SWAP1 PUSH1 0x20 ADD DUP1 DUP4 GT PUSH2 0x57E JUMPI DUP3 SWAP1 SUB PUSH1 0x1F AND DUP3 ADD SWAP2 JUMPDEST POP POP POP POP POP SWAP1 DUP1 PUSH1 0x4 ADD DUP1 SLOAD PUSH2 0x5B0 SWAP1 PUSH2 0xF17 JUMP JUMPDEST DUP1 PUSH1 0x1F ADD PUSH1 0x20 DUP1 SWAP2 DIV MUL PUSH1 0x20 ADD PUSH1 0x40 MLOAD SWAP1 DUP2 ADD PUSH1 0x40 MSTORE DUP1 SWAP3 SWAP2 SWAP1 DUP2 DUP2 MSTORE PUSH1 0x20 ADD DUP3 DUP1 SLOAD PUSH2 0x5DC SWAP1 PUSH2 0xF17 JUMP JUMPDEST DUP1 ISZERO PUSH2 0x627 JUMPI DUP1 PUSH1 0x1F LT PUSH2 0x5FE JUMPI PUSH2 0x100 DUP1 DUP4 SLOAD DIV MUL DUP4 MSTORE SWAP2 PUSH1 0x20 ADD SWAP2 PUSH2 0x627 JUMP JUMPDEST DUP3 ADD SWAP2 SWAP1 PUSH0 MSTORE PUSH1 0x20 PUSH0 KECCAK256 SWAP1 JUMPDEST DUP2 SLOAD DUP2 MSTORE SWAP1 PUSH1 0x1 ADD SWAP1 PUSH1 0x20 ADD DUP1 DUP4 GT PUSH2 0x60A JUMPI DUP3 SWAP1 SUB PUSH1 0x1F AND DUP3 ADD SWAP2 JUMPDEST POP POP POP POP POP SWAP1 DUP1 PUSH1 0x5 ADD SLOAD SWAP1 POP DUP7 JUMP JUMPDEST PUSH1 0x60 DUP1 PUSH1 0x60 DUP1 PUSH0 DUP1 PUSH20 0xFFFFFFFFFFFFFFFFFFFFFFFFFFFFFFFFFFFFFFFF AND PUSH1 0x1 PUSH0 DUP9 PUSH20 0xFFFFFFFFFFFFFFFFFFFFFFFFFFFFFFFFFFFFFFFF AND PUSH20 0xFFFFFFFFFFFFFFFFFFFFFFFFFFFFFFFFFFFFFFFF AND DUP2 MSTORE PUSH1 0x20 ADD SWAP1 DUP2 MSTORE PUSH1 0x20 ADD PUSH0 KECCAK256 PUSH0 ADD PUSH0 SWAP1 SLOAD SWAP1 PUSH2 0x100 EXP SWAP1 DIV PUSH20 0xFFFFFFFFFFFFFFFFFFFFFFFFFFFFFFFFFFFFFFFF AND PUSH20 0xFFFFFFFFFFFFFFFFFFFFFFFFFFFFFFFFFFFFFFFF AND SUB PUSH2 0x70A JUMPI PUSH1 0x40 MLOAD PUSH32 0x8C379A000000000000000000000000000000000000000000000000000000000 DUP2 MSTORE PUSH1 0x4 ADD PUSH2 0x701 SWAP1 PUSH2 0x11FD JUMP JUMPDEST PUSH1 0x40 MLOAD DUP1 SWAP2 SUB SWAP1 REVERT JUMPDEST PUSH0 PUSH1 0x1 PUSH0 DUP9 PUSH20 0xFFFFFFFFFFFFFFFFFFFFFFFFFFFFFFFFFFFFFFFF AND PUSH20 0xFFFFFFFFFFFFFFFFFFFFFFFFFFFFFFFFFFFFFFFF AND DUP2 MSTORE PUSH1 0x20 ADD SWAP1 DUP2 MSTORE PUSH1 0x20 ADD PUSH0 KECCAK256 SWAP1 POP DUP1 PUSH1 0x1 ADD DUP2 PUSH1 0x2 ADD DUP3 PUSH1 0x3 ADD DUP4 PUSH1 0x4 ADD DUP5 PUSH1 0x5 ADD SLOAD DUP5 DUP1 SLOAD PUSH2 0x76B SWAP1 PUSH2 0xF17 JUMP JUMPDEST DUP1 PUSH1 0x1F ADD PUSH1 0x20 DUP1 SWAP2 DIV MUL PUSH1 0x20 ADD PUSH1 0x40 MLOAD SWAP1 DUP2 ADD PUSH1 0x40 MSTORE DUP1 SWAP3 SWAP2 SWAP1 DUP2 DUP2 MSTORE PUSH1 0x20 ADD DUP3 DUP1 SLOAD PUSH2 0x797 SWAP1 PUSH2 0xF17 JUMP JUMPDEST DUP1 ISZERO PUSH2 0x7E2 JUMPI DUP1 PUSH1 0x1F LT PUSH2 0x7B9 JUMPI PUSH2 0x100 DUP1 DUP4 SLOAD DIV MUL DUP4 MSTORE SWAP2 PUSH1 0x20 ADD SWAP2 PUSH2 0x7E2 JUMP JUMPDEST DUP3 ADD SWAP2 SWAP1 PUSH0 MSTORE PUSH1 0x20 PUSH0 KECCAK256 SWAP1 JUMPDEST DUP2 SLOAD DUP2 MSTORE SWAP1 PUSH1 0x1 ADD SWAP1 PUSH1 0x20 ADD DUP1 DUP4 GT PUSH2 0x7C5 JUMPI DUP3 SWAP1 SUB PUSH1 0x1F AND DUP3 ADD SWAP2 JUMPDEST POP POP POP POP POP SWAP5 POP DUP4 DUP1 SLOAD PUSH2 0x7F5 SWAP1 PUSH2 0xF17 JUMP JUMPDEST DUP1 PUSH1 0x1F ADD PUSH1 0x20 DUP1 SWAP2 DIV MUL PUSH1 0x20 ADD PUSH1 0x40 MLOAD SWAP1 DUP2 ADD PUSH1 0x40 MSTORE DUP1 SWAP3 SWAP2 SWAP1 DUP2 DUP2 MSTORE PUSH1 0x20 ADD DUP3 DUP1 SLOAD PUSH2 0x821 SWAP1 PUSH2 0xF17 JUMP JUMPDEST DUP1 ISZERO PUSH2 0x86C JUMPI DUP1 PUSH1 0x1F LT PUSH2 0x843 JUMPI PUSH2 0x100 DUP1 DUP4 SLOAD DIV MUL DUP4 MSTORE SWAP2 PUSH1 0x20 ADD SWAP2 PUSH2 0x86C JUMP JUMPDEST DUP3 ADD SWAP2 SWAP1 PUSH0 MSTORE PUSH1 0x20 PUSH0 KECCAK256 SWAP1 JUMPDEST DUP2 SLOAD DUP2 MSTORE SWAP1 PUSH1 0x1 ADD SWAP1 PUSH1 0x20 ADD DUP1 DUP4 GT PUSH2 0x84F JUMPI DUP3 SWAP1 SUB PUSH1 0x1F AND DUP3 ADD SWAP2 JUMPDEST POP POP POP POP POP SWAP4 POP DUP3 DUP1 SLOAD PUSH2 0x87F SWAP1 PUSH2 0xF17 JUMP JUMPDEST DUP1 PUSH1 0x1F ADD PUSH1 0x20 DUP1 SWAP2 DIV MUL PUSH1 0x20 ADD PUSH1 0x40 MLOAD SWAP1 DUP2 ADD PUSH1 0x40 MSTORE DUP1 SWAP3 SWAP2 SWAP1 DUP2 DUP2 MSTORE PUSH1 0x20 ADD DUP3 DUP1 SLOAD PUSH2 0x8AB SWAP1 PUSH2 0xF17 JUMP JUMPDEST DUP1 ISZERO PUSH2 0x8F6 JUMPI DUP1 PUSH1 0x1F LT PUSH2 0x8CD JUMPI PUSH2 0x100 DUP1 DUP4 SLOAD DIV MUL DUP4 MSTORE SWAP2 PUSH1 0x20 ADD SWAP2 PUSH2 0x8F6 JUMP JUMPDEST DUP3 ADD SWAP2 SWAP1 PUSH0 MSTORE PUSH1 0x20 PUSH0 KECCAK256 SWAP1 JUMPDEST DUP2 SLOAD DUP2 MSTORE SWAP1 PUSH1 0x1 ADD SWAP1 PUSH1 0x20 ADD DUP1 DUP4 GT PUSH2 0x8D9 JUMPI DUP3 SWAP1 SUB PUSH1 0x1F AND DUP3 ADD SWAP2 JUMPDEST POP POP POP POP POP SWAP3 POP DUP2 DUP1 SLOAD PUSH2 0x909 SWAP1 PUSH2 0xF17 JUMP JUMPDEST DUP1 PUSH1 0x1F ADD PUSH1 0x20 DUP1 SWAP2 DIV MUL PUSH1 0x20 ADD PUSH1 0x40 MLOAD SWAP1 DUP2 ADD PUSH1 0x40 MSTORE DUP1 SWAP3 SWAP2 SWAP1 DUP2 DUP2 MSTORE PUSH1 0x20 ADD DUP3 DUP1 SLOAD PUSH2 0x935 SWAP1 PUSH2 0xF17 JUMP JUMPDEST DUP1 ISZERO PUSH2 0x980 JUMPI DUP1 PUSH1 0x1F LT PUSH2 0x957 JUMPI PUSH2 0x100 DUP1 DUP4 SLOAD DIV MUL DUP4 MSTORE SWAP2 PUSH1 0x20 ADD SWAP2 PUSH2 0x980 JUMP JUMPDEST DUP3 ADD SWAP2 SWAP1 PUSH0 MSTORE PUSH1 0x20 PUSH0 KECCAK256 SWAP1 JUMPDEST DUP2 SLOAD DUP2 MSTORE SWAP1 PUSH1 0x1 ADD SWAP1 PUSH1 0x20 ADD DUP1 DUP4 GT PUSH2 0x963 JUMPI DUP3 SWAP1 SUB PUSH1 0x1F AND DUP3 ADD SWAP2 JUMPDEST POP POP POP POP POP SWAP2 POP SWAP6 POP SWAP6 POP SWAP6 POP SWAP6 POP SWAP6 POP POP SWAP2 SWAP4 SWAP6 SWAP1 SWAP3 SWAP5 POP JUMP JUMPDEST PUSH0 PUSH1 0x40 MLOAD SWAP1 POP SWAP1 JUMP JUMPDEST PUSH0 DUP1 REVERT JUMPDEST PUSH0 DUP1 REVERT JUMPDEST PUSH0 DUP1 REVERT JUMPDEST PUSH0 DUP1 REVERT JUMPDEST PUSH0 PUSH1 0x1F NOT PUSH1 0x1F DUP4 ADD AND SWAP1 POP SWAP2 SWAP1 POP JUMP JUMPDEST PUSH32 0x4E487B7100000000000000000000000000000000000000000000000000000000 PUSH0 MSTORE PUSH1 0x41 PUSH1 0x4 MSTORE PUSH1 0x24 PUSH0 REVERT JUMPDEST PUSH2 0x9FA DUP3 PUSH2 0x9B4 JUMP JUMPDEST DUP2 ADD DUP2 DUP2 LT PUSH8 0xFFFFFFFFFFFFFFFF DUP3 GT OR ISZERO PUSH2 0xA19 JUMPI PUSH2 0xA18 PUSH2 0x9C4 JUMP JUMPDEST JUMPDEST DUP1 PUSH1 0x40 MSTORE POP POP POP JUMP JUMPDEST PUSH0 PUSH2 0xA2B PUSH2 0x99B JUMP JUMPDEST SWAP1 POP PUSH2 0xA37 DUP3 DUP3 PUSH2 0x9F1 JUMP JUMPDEST SWAP2 SWAP1 POP JUMP JUMPDEST PUSH0 PUSH8 0xFFFFFFFFFFFFFFFF DUP3 GT ISZERO PUSH2 0xA56 JUMPI PUSH2 0xA55 PUSH2 0x9C4 JUMP JUMPDEST JUMPDEST PUSH2 0xA5F DUP3 PUSH2 0x9B4 JUMP JUMPDEST SWAP1 POP PUSH1 0x20 DUP2 ADD SWAP1 POP SWAP2 SWAP1 POP JUMP JUMPDEST DUP3 DUP2 DUP4 CALLDATACOPY PUSH0 DUP4 DUP4 ADD MSTORE POP POP POP JUMP JUMPDEST PUSH0 PUSH2 0xA8C PUSH2 0xA87 DUP5 PUSH2 0xA3C JUMP JUMPDEST PUSH2 0xA22 JUMP JUMPDEST SWAP1 POP DUP3 DUP2 MSTORE PUSH1 0x20 DUP2 ADD DUP5 DUP5 DUP5 ADD GT ISZERO PUSH2 0xAA8 JUMPI PUSH2 0xAA7 PUSH2 0x9B0 JUMP JUMPDEST JUMPDEST PUSH2 0xAB3 DUP5 DUP3 DUP6 PUSH2 0xA6C JUMP JUMPDEST POP SWAP4 SWAP3 POP POP POP JUMP JUMPDEST PUSH0 DUP3 PUSH1 0x1F DUP4 ADD SLT PUSH2 0xACF JUMPI PUSH2 0xACE PUSH2 0x9AC JUMP JUMPDEST JUMPDEST DUP2 CALLDATALOAD PUSH2 0xADF DUP5 DUP3 PUSH1 0x20 DUP7 ADD PUSH2 0xA7A JUMP JUMPDEST SWAP2 POP POP SWAP3 SWAP2 POP POP JUMP JUMPDEST PUSH0 DUP1 PUSH0 DUP1 PUSH1 0x80 DUP6 DUP8 SUB SLT ISZERO PUSH2 0xB00 JUMPI PUSH2 0xAFF PUSH2 0x9A4 JUMP JUMPDEST JUMPDEST PUSH0 DUP6 ADD CALLDATALOAD PUSH8 0xFFFFFFFFFFFFFFFF DUP2 GT ISZERO PUSH2 0xB1D JUMPI PUSH2 0xB1C PUSH2 0x9A8 JUMP JUMPDEST JUMPDEST PUSH2 0xB29 DUP8 DUP3 DUP9 ADD PUSH2 0xABB JUMP JUMPDEST SWAP5 POP POP PUSH1 0x20 DUP6 ADD CALLDATALOAD PUSH8 0xFFFFFFFFFFFFFFFF DUP2 GT ISZERO PUSH2 0xB4A JUMPI PUSH2 0xB49 PUSH2 0x9A8 JUMP JUMPDEST JUMPDEST PUSH2 0xB56 DUP8 DUP3 DUP9 ADD PUSH2 0xABB JUMP JUMPDEST SWAP4 POP POP PUSH1 0x40 DUP6 ADD CALLDATALOAD PUSH8 0xFFFFFFFFFFFFFFFF DUP2 GT ISZERO PUSH2 0xB77 JUMPI PUSH2 0xB76 PUSH2 0x9A8 JUMP JUMPDEST JUMPDEST PUSH2 0xB83 DUP8 DUP3 DUP9 ADD PUSH2 0xABB JUMP JUMPDEST SWAP3 POP POP PUSH1 0x60 DUP6 ADD CALLDATALOAD PUSH8 0xFFFFFFFFFFFFFFFF DUP2 GT ISZERO PUSH2 0xBA4 JUMPI PUSH2 0xBA3 PUSH2 0x9A8 JUMP JUMPDEST JUMPDEST PUSH2 0xBB0 DUP8 DUP3 DUP9 ADD PUSH2 0xABB JUMP JUMPDEST SWAP2 POP POP SWAP3 SWAP6 SWAP2 SWAP5 POP SWAP3 POP JUMP JUMPDEST PUSH0 PUSH20 0xFFFFFFFFFFFFFFFFFFFFFFFFFFFFFFFFFFFFFFFF DUP3 AND SWAP1 POP SWAP2 SWAP1 POP JUMP JUMPDEST PUSH0 PUSH2 0xBE5 DUP3 PUSH2 0xBBC JUMP JUMPDEST SWAP1 POP SWAP2 SWAP1 POP JUMP JUMPDEST PUSH2 0xBF5 DUP2 PUSH2 0xBDB JUMP JUMPDEST DUP2 EQ PUSH2 0xBFF JUMPI PUSH0 DUP1 REVERT JUMPDEST POP JUMP JUMPDEST PUSH0 DUP2 CALLDATALOAD SWAP1 POP PUSH2 0xC10 DUP2 PUSH2 0xBEC JUMP JUMPDEST SWAP3 SWAP2 POP POP JUMP JUMPDEST PUSH0 PUSH1 0x20 DUP3 DUP5 SUB SLT ISZERO PUSH2 0xC2B JUMPI PUSH2 0xC2A PUSH2 0x9A4 JUMP JUMPDEST JUMPDEST PUSH0 PUSH2 0xC38 DUP5 DUP3 DUP6 ADD PUSH2 0xC02 JUMP JUMPDEST SWAP2 POP POP SWAP3 SWAP2 POP POP JUMP JUMPDEST PUSH2 0xC4A DUP2 PUSH2 0xBDB JUMP JUMPDEST DUP3 MSTORE POP POP JUMP JUMPDEST PUSH0 DUP2 MLOAD SWAP1 POP SWAP2 SWAP1 POP JUMP JUMPDEST PUSH0 DUP3 DUP3 MSTORE PUSH1 0x20 DUP3 ADD SWAP1 POP SWAP3 SWAP2 POP POP JUMP JUMPDEST PUSH0 JUMPDEST DUP4 DUP2 LT ISZERO PUSH2 0xC87 JUMPI DUP1 DUP3 ADD MLOAD DUP2 DUP5 ADD MSTORE PUSH1 0x20 DUP2 ADD SWAP1 POP PUSH2 0xC6C JUMP JUMPDEST PUSH0 DUP5 DUP5 ADD MSTORE POP POP POP POP JUMP JUMPDEST PUSH0 PUSH2 0xC9C DUP3 PUSH2 0xC50 JUMP JUMPDEST PUSH2 0xCA6 DUP2 DUP6 PUSH2 0xC5A JUMP JUMPDEST SWAP4 POP PUSH2 0xCB6 DUP2 DUP6 PUSH1 0x20 DUP7 ADD PUSH2 0xC6A JUMP JUMPDEST PUSH2 0xCBF DUP2 PUSH2 0x9B4 JUMP JUMPDEST DUP5 ADD SWAP2 POP POP SWAP3 SWAP2 POP POP JUMP JUMPDEST PUSH0 DUP2 SWAP1 POP SWAP2 SWAP1 POP JUMP JUMPDEST PUSH2 0xCDC DUP2 PUSH2 0xCCA JUMP JUMPDEST DUP3 MSTORE POP POP JUMP JUMPDEST PUSH0 PUSH1 0xC0 DUP3 ADD SWAP1 POP PUSH2 0xCF5 PUSH0 DUP4 ADD DUP10 PUSH2 0xC41 JUMP JUMPDEST DUP2 DUP2 SUB PUSH1 0x20 DUP4 ADD MSTORE PUSH2 0xD07 DUP2 DUP9 PUSH2 0xC92 JUMP JUMPDEST SWAP1 POP DUP2 DUP2 SUB PUSH1 0x40 DUP4 ADD MSTORE PUSH2 0xD1B DUP2 DUP8 PUSH2 0xC92 JUMP JUMPDEST SWAP1 POP DUP2 DUP2 SUB PUSH1 0x60 DUP4 ADD MSTORE PUSH2 0xD2F DUP2 DUP7 PUSH2 0xC92 JUMP JUMPDEST SWAP1 POP DUP2 DUP2 SUB PUSH1 0x80 DUP4 ADD MSTORE PUSH2 0xD43 DUP2 DUP6 PUSH2 0xC92 JUMP JUMPDEST SWAP1 POP PUSH2 0xD52 PUSH1 0xA0 DUP4 ADD DUP5 PUSH2 0xCD3 JUMP JUMPDEST SWAP8 SWAP7 POP POP POP POP POP POP POP JUMP JUMPDEST PUSH0 PUSH1 0xA0 DUP3 ADD SWAP1 POP DUP2 DUP2 SUB PUSH0 DUP4 ADD MSTORE PUSH2 0xD75 DUP2 DUP9 PUSH2 0xC92 JUMP JUMPDEST SWAP1 POP DUP2 DUP2 SUB PUSH1 0x20 DUP4 ADD MSTORE PUSH2 0xD89 DUP2 DUP8 PUSH2 0xC92 JUMP JUMPDEST SWAP1 POP DUP2 DUP2 SUB PUSH1 0x40 DUP4 ADD MSTORE PUSH2 0xD9D DUP2 DUP7 PUSH2 0xC92 JUMP JUMPDEST SWAP1 POP DUP2 DUP2 SUB PUSH1 0x60 DUP4 ADD MSTORE PUSH2 0xDB1 DUP2 DUP6 PUSH2 0xC92 JUMP JUMPDEST SWAP1 POP PUSH2 0xDC0 PUSH1 0x80 DUP4 ADD DUP5 PUSH2 0xCD3 JUMP JUMPDEST SWAP7 SWAP6 POP POP POP POP POP POP JUMP JUMPDEST PUSH32 0x5573657220616C72656164792072656769737465726564000000000000000000 PUSH0 DUP3 ADD MSTORE POP JUMP JUMPDEST PUSH0 PUSH2 0xDFE PUSH1 0x17 DUP4 PUSH2 0xC5A JUMP JUMPDEST SWAP2 POP PUSH2 0xE09 DUP3 PUSH2 0xDCA JUMP JUMPDEST PUSH1 0x20 DUP3 ADD SWAP1 POP SWAP2 SWAP1 POP JUMP JUMPDEST PUSH0 PUSH1 0x20 DUP3 ADD SWAP1 POP DUP2 DUP2 SUB PUSH0 DUP4 ADD MSTORE PUSH2 0xE2B DUP2 PUSH2 0xDF2 JUMP JUMPDEST SWAP1 POP SWAP2 SWAP1 POP JUMP JUMPDEST PUSH0 DUP2 SWAP1 POP SWAP3 SWAP2 POP POP JUMP JUMPDEST PUSH0 PUSH2 0xE46 DUP3 PUSH2 0xC50 JUMP JUMPDEST PUSH2 0xE50 DUP2 DUP6 PUSH2 0xE32 JUMP JUMPDEST SWAP4 POP PUSH2 0xE60 DUP2 DUP6 PUSH1 0x20 DUP7 ADD PUSH2 0xC6A JUMP JUMPDEST DUP1 DUP5 ADD SWAP2 POP POP SWAP3 SWAP2 POP POP JUMP JUMPDEST PUSH0 PUSH2 0xE77 DUP3 DUP5 PUSH2 0xE3C JUMP JUMPDEST SWAP2 POP DUP2 SWAP1 POP SWAP3 SWAP2 POP POP JUMP JUMPDEST PUSH32 0x416164686172206E756D62657220616C72656164792072656769737465726564 PUSH0 DUP3 ADD MSTORE POP JUMP JUMPDEST PUSH0 PUSH2 0xEB6 PUSH1 0x20 DUP4 PUSH2 0xC5A JUMP JUMPDEST SWAP2 POP PUSH2 0xEC1 DUP3 PUSH2 0xE82 JUMP JUMPDEST PUSH1 0x20 DUP3 ADD SWAP1 POP SWAP2 SWAP1 POP JUMP JUMPDEST PUSH0 PUSH1 0x20 DUP3 ADD SWAP1 POP DUP2 DUP2 SUB PUSH0 DUP4 ADD MSTORE PUSH2 0xEE3 DUP2 PUSH2 0xEAA JUMP JUMPDEST SWAP1 POP SWAP2 SWAP1 POP JUMP JUMPDEST PUSH32 0x4E487B7100000000000000000000000000000000000000000000000000000000 PUSH0 MSTORE PUSH1 0x22 PUSH1 0x4 MSTORE PUSH1 0x24 PUSH0 REVERT JUMPDEST PUSH0 PUSH1 0x2 DUP3 DIV SWAP1 POP PUSH1 0x1 DUP3 AND DUP1 PUSH2 0xF2E JUMPI PUSH1 0x7F DUP3 AND SWAP2 POP JUMPDEST PUSH1 0x20 DUP3 LT DUP2 SUB PUSH2 0xF41 JUMPI PUSH2 0xF40 PUSH2 0xEEA JUMP JUMPDEST JUMPDEST POP SWAP2 SWAP1 POP JUMP JUMPDEST PUSH0 DUP2 SWAP1 POP DUP2 PUSH0 MSTORE PUSH1 0x20 PUSH0 KECCAK256 SWAP1 POP SWAP2 SWAP1 POP JUMP JUMPDEST PUSH0 PUSH1 0x20 PUSH1 0x1F DUP4 ADD DIV SWAP1 POP SWAP2 SWAP1 POP JUMP JUMPDEST PUSH0 DUP3 DUP3 SHL SWAP1 POP SWAP3 SWAP2 POP POP JUMP JUMPDEST PUSH0 PUSH1 0x8 DUP4 MUL PUSH2 0xFA3 PUSH32 0xFFFFFFFFFFFFFFFFFFFFFFFFFFFFFFFFFFFFFFFFFFFFFFFFFFFFFFFFFFFFFFFF DUP3 PUSH2 0xF68 JUMP JUMPDEST PUSH2 0xFAD DUP7 DUP4 PUSH2 0xF68 JUMP JUMPDEST SWAP6 POP DUP1 NOT DUP5 AND SWAP4 POP DUP1 DUP7 AND DUP5 OR SWAP3 POP POP POP SWAP4 SWAP3 POP POP POP JUMP JUMPDEST PUSH0 DUP2 SWAP1 POP SWAP2 SWAP1 POP JUMP JUMPDEST PUSH0 PUSH2 0xFE8 PUSH2 0xFE3 PUSH2 0xFDE DUP5 PUSH2 0xCCA JUMP JUMPDEST PUSH2 0xFC5 JUMP JUMPDEST PUSH2 0xCCA JUMP JUMPDEST SWAP1 POP SWAP2 SWAP1 POP JUMP JUMPDEST PUSH0 DUP2 SWAP1 POP SWAP2 SWAP1 POP JUMP JUMPDEST PUSH2 0x1001 DUP4 PUSH2 0xFCE JUMP JUMPDEST PUSH2 0x1015 PUSH2 0x100D DUP3 PUSH2 0xFEF JUMP JUMPDEST DUP5 DUP5 SLOAD PUSH2 0xF74 JUMP JUMPDEST DUP3 SSTORE POP POP POP POP JUMP JUMPDEST PUSH0 SWAP1 JUMP JUMPDEST PUSH2 0x1029 PUSH2 0x101D JUMP JUMPDEST PUSH2 0x1034 DUP2 DUP5 DUP5 PUSH2 0xFF8 JUMP JUMPDEST POP POP POP JUMP JUMPDEST JUMPDEST DUP2 DUP2 LT ISZERO PUSH2 0x1057 JUMPI PUSH2 0x104C PUSH0 DUP3 PUSH2 0x1021 JUMP JUMPDEST PUSH1 0x1 DUP2 ADD SWAP1 POP PUSH2 0x103A JUMP JUMPDEST POP POP JUMP JUMPDEST PUSH1 0x1F DUP3 GT ISZERO PUSH2 0x109C JUMPI PUSH2 0x106D DUP2 PUSH2 0xF47 JUMP JUMPDEST PUSH2 0x1076 DUP5 PUSH2 0xF59 JUMP JUMPDEST DUP2 ADD PUSH1 0x20 DUP6 LT ISZERO PUSH2 0x1085 JUMPI DUP2 SWAP1 POP JUMPDEST PUSH2 0x1099 PUSH2 0x1091 DUP6 PUSH2 0xF59 JUMP JUMPDEST DUP4 ADD DUP3 PUSH2 0x1039 JUMP JUMPDEST POP POP JUMPDEST POP POP POP JUMP JUMPDEST PUSH0 DUP3 DUP3 SHR SWAP1 POP SWAP3 SWAP2 POP POP JUMP JUMPDEST PUSH0 PUSH2 0x10BC PUSH0 NOT DUP5 PUSH1 0x8 MUL PUSH2 0x10A1 JUMP JUMPDEST NOT DUP1 DUP4 AND SWAP2 POP POP SWAP3 SWAP2 POP POP JUMP JUMPDEST PUSH0 PUSH2 0x10D4 DUP4 DUP4 PUSH2 0x10AD JUMP JUMPDEST SWAP2 POP DUP3 PUSH1 0x2 MUL DUP3 OR SWAP1 POP SWAP3 SWAP2 POP POP JUMP JUMPDEST PUSH2 0x10ED DUP3 PUSH2 0xC50 JUMP JUMPDEST PUSH8 0xFFFFFFFFFFFFFFFF DUP2 GT ISZERO PUSH2 0x1106 JUMPI PUSH2 0x1105 PUSH2 0x9C4 JUMP JUMPDEST JUMPDEST PUSH2 0x1110 DUP3 SLOAD PUSH2 0xF17 JUMP JUMPDEST PUSH2 0x111B DUP3 DUP3 DUP6 PUSH2 0x105B JUMP JUMPDEST PUSH0 PUSH1 0x20 SWAP1 POP PUSH1 0x1F DUP4 GT PUSH1 0x1 DUP2 EQ PUSH2 0x114C JUMPI PUSH0 DUP5 ISZERO PUSH2 0x113A JUMPI DUP3 DUP8 ADD MLOAD SWAP1 POP JUMPDEST PUSH2 0x1144 DUP6 DUP3 PUSH2 0x10C9 JUMP JUMPDEST DUP7 SSTORE POP PUSH2 0x11AB JUMP JUMPDEST PUSH1 0x1F NOT DUP5 AND PUSH2 0x115A DUP7 PUSH2 0xF47 JUMP JUMPDEST PUSH0 JUMPDEST DUP3 DUP2 LT ISZERO PUSH2 0x1181 JUMPI DUP5 DUP10 ADD MLOAD DUP3 SSTORE PUSH1 0x1 DUP3 ADD SWAP2 POP PUSH1 0x20 DUP6 ADD SWAP5 POP PUSH1 0x20 DUP2 ADD SWAP1 POP PUSH2 0x115C JUMP JUMPDEST DUP7 DUP4 LT ISZERO PUSH2 0x119E JUMPI DUP5 DUP10 ADD MLOAD PUSH2 0x119A PUSH1 0x1F DUP10 AND DUP3 PUSH2 0x10AD JUMP JUMPDEST DUP4 SSTORE POP JUMPDEST PUSH1 0x1 PUSH1 0x2 DUP9 MUL ADD DUP9 SSTORE POP POP POP JUMPDEST POP POP POP POP POP POP JUMP JUMPDEST PUSH32 0x5573657220646F6573206E6F7420657869737400000000000000000000000000 PUSH0 DUP3 ADD MSTORE POP JUMP JUMPDEST PUSH0 PUSH2 0x11E7 PUSH1 0x13 DUP4 PUSH2 0xC5A JUMP JUMPDEST SWAP2 POP PUSH2 0x11F2 DUP3 PUSH2 0x11B3 JUMP JUMPDEST PUSH1 0x20 DUP3 ADD SWAP1 POP SWAP2 SWAP1 POP JUMP JUMPDEST PUSH0 PUSH1 0x20 DUP3 ADD SWAP1 POP DUP2 DUP2 SUB PUSH0 DUP4 ADD MSTORE PUSH2 0x1214 DUP2 PUSH2 0x11DB JUMP JUMPDEST SWAP1 POP SWAP2 SWAP1 POP JUMP INVALID LOG2 PUSH5 0x6970667358 0x22 SLT KECCAK256 0x4B DELEGATECALL DUP5 0xD0 0xDF 0xEB 0xE5 0xC8 0x21 BASEFEE PUSH17 0x31DAD04839D24B5244C11541C2A75EC636 PUSH2 0xBE42 0xA5 PUSH5 0x736F6C6343 STOP ADDMOD XOR STOP CALLER "
				},
				"gasEstimates": {
					"creation": {
						"codeDepositCost": "937800",
						"executionCost": "973",
						"totalCost": "938773"
					},
					"external": {
						"getUserDetails(address)": "infinite",
						"registerUser(string,string,string,string)": "infinite",
						"users(address)": "infinite"
					}
				},
				"methodIdentifiers": {
					"getUserDetails(address)": "cc3d967b",
					"registerUser(string,string,string,string)": "93e54a56",
					"users(address)": "a87430ba"
				}
			},
			"storageLayout": {
				"storage": [
					{
						"astId": 18,
						"contract": "contracts/3_User.sol:Users",
						"label": "registeredUsers",
						"offset": 0,
						"slot": "0",
						"type": "t_mapping(t_address,t_bool)"
					},
					{
						"astId": 23,
						"contract": "contracts/3_User.sol:Users",
						"label": "users",
						"offset": 0,
						"slot": "1",
						"type": "t_mapping(t_address,t_struct(User)14_storage)"
					},
					{
						"astId": 27,
						"contract": "contracts/3_User.sol:Users",
						"label": "aadharNumbers",
						"offset": 0,
						"slot": "2",
						"type": "t_mapping(t_string_memory_ptr,t_bool)"
					}
				],
				"types": {
					"t_address": {
						"encoding": "inplace",
						"label": "address",
						"numberOfBytes": "20"
					},
					"t_bool": {
						"encoding": "inplace",
						"label": "bool",
						"numberOfBytes": "1"
					},
					"t_mapping(t_address,t_bool)": {
						"encoding": "mapping",
						"key": "t_address",
						"label": "mapping(address => bool)",
						"numberOfBytes": "32",
						"value": "t_bool"
					},
					"t_mapping(t_address,t_struct(User)14_storage)": {
						"encoding": "mapping",
						"key": "t_address",
						"label": "mapping(address => struct Users.User)",
						"numberOfBytes": "32",
						"value": "t_struct(User)14_storage"
					},
					"t_mapping(t_string_memory_ptr,t_bool)": {
						"encoding": "mapping",
						"key": "t_string_memory_ptr",
						"label": "mapping(string => bool)",
						"numberOfBytes": "32",
						"value": "t_bool"
					},
					"t_string_memory_ptr": {
						"encoding": "bytes",
						"label": "string",
						"numberOfBytes": "32"
					},
					"t_string_storage": {
						"encoding": "bytes",
						"label": "string",
						"numberOfBytes": "32"
					},
					"t_struct(User)14_storage": {
						"encoding": "inplace",
						"label": "struct Users.User",
						"members": [
							{
								"astId": 3,
								"contract": "contracts/3_User.sol:Users",
								"label": "userID",
								"offset": 0,
								"slot": "0",
								"type": "t_address"
							},
							{
								"astId": 5,
								"contract": "contracts/3_User.sol:Users",
								"label": "firstName",
								"offset": 0,
								"slot": "1",
								"type": "t_string_storage"
							},
							{
								"astId": 7,
								"contract": "contracts/3_User.sol:Users",
								"label": "lastName",
								"offset": 0,
								"slot": "2",
								"type": "t_string_storage"
							},
							{
								"astId": 9,
								"contract": "contracts/3_User.sol:Users",
								"label": "dateOfBirth",
								"offset": 0,
								"slot": "3",
								"type": "t_string_storage"
							},
							{
								"astId": 11,
								"contract": "contracts/3_User.sol:Users",
								"label": "aadharNumber",
								"offset": 0,
								"slot": "4",
								"type": "t_string_storage"
							},
							{
								"astId": 13,
								"contract": "contracts/3_User.sol:Users",
								"label": "accountCreatedDateTime",
								"offset": 0,
								"slot": "5",
								"type": "t_uint256"
							}
						],
						"numberOfBytes": "192"
					},
					"t_uint256": {
						"encoding": "inplace",
						"label": "uint256",
						"numberOfBytes": "32"
					}
				}
			},
			"userdoc": {
				"kind": "user",
				"methods": {},
				"version": 1
			}
		}
	}
}